:020000040800F2
:1000000000500020994D0008654A0008694A000820
:100010006D4A0008714A0008754A00080000000097
:10002000000000000000000000000000794A000805
:100030007D4A000800000000814A0008854A000847
:10004000E14D0008E14D0008E14D0008E14D0008D8
:10005000E14D0008E14D0008E14D0008E14D0008C8
:10006000E14D0008E14D0008E14D0008954A000807
:10007000E14D0008E14D0008E14D0008E14D0008A8
:10008000E14D0008E14D0008E14D0008E14D000898
:10009000E14D0008E14D0008E14D0008A14A0008CB
:1000A000E14D0008E14D0008E14D0008E14D000878
:1000B000A94A0008E14D0008E14D0008E14D0008A3
:1000C000E14D0008E14D0008E14D0008E14D000858
:1000D000E14D0008E14D0008E14D0008E14D000848
:1000E000B54A0008E14D0008E14D0008000000009D
:1000F0000000000000000000000000000000000000
:0C01000000000000000000005FF808F1A3
:1001100010B5054C237833B9044B13B10448AFF341
:1001200000800123237010BDB002002000000000F9
:100130009C56000808B5034B1BB103490348AFF3B5
:10014000008008BD00000000B40200209C5600089A
:1001500081F0004102E000BF83F0004330B54FEA78
:1001600041044FEA430594EA050F08BF90EA020FE5
:100170001FBF54EA000C55EA020C7FEA645C7FEA78
:10018000655C00F0E2804FEA5454D4EB5555B8BF9B
:100190006D420CDD2C4480EA020281EA030382EA0C
:1001A000000083EA010180EA020281EA0303362D9E
:1001B00088BF30BD11F0004F4FEA01314FF4801C71
:1001C0004CEA113102D0404261EB410113F0004F83
:1001D0004FEA03334CEA133302D0524263EB43033A
:1001E00094EA050F00F0A780A4F10104D5F1200ED8
:1001F0000DDB02FA0EFC22FA05F2801841F1000133
:1002000003FA0EF2801843FA05F359410EE0A5F106
:1002100020050EF1200E012A03FA0EFC28BF4CF037
:10022000020C43FA05F3C01851EBE37101F00045ED
:1002300007D54FF0000EDCF1000C7EEB00006EEBFA
:100240000101B1F5801F1BD3B1F5001F0CD3490884
:100250005FEA30004FEA3C0C04F101044FEA4452DB
:1002600012F5800F80F09A80BCF1004F08BF5FEA62
:10027000500C50F1000041EB045141EA050130BD42
:100280005FEA4C0C404141EB010111F4801FA4F1E5
:100290000104E9D191F0000F04BF01460020B1FA3A
:1002A00081F308BF2033A3F10B03B3F120020CDA72
:1002B0000C3208DD02F1140CC2F10C0201FA0CF050
:1002C00021FA02F10CE002F11402D8BFC2F1200CB5
:1002D00001FA02F120FA0CFCDCBF41EA0C0190406B
:1002E000E41AA2BF01EB0451294330BD6FEA0404B4
:1002F0001F3C1CDA0C340EDC04F11404C4F120029F
:1003000020FA04F001FA02F340EA030021FA04F3B0
:1003100045EA030130BDC4F10C04C4F1200220FA07
:1003200002F001FA04F340EA0300294630BD21FA45
:1003300004F0294630BD94F0000F83F4801306BF0B
:1003400081F480110134013D4EE77FEA645C18BFFF
:100350007FEA655C29D094EA050F08BF90EA020F96
:1003600005D054EA000C04BF1946104630BD91EA8E
:10037000030F1EBF0021002030BD5FEA545C05D191
:100380004000494128BF41F0004130BD14F58004D0
:100390003CBF01F5801130BD01F0004545F0FE4144
:1003A00041F470014FF0000030BD7FEA645C1ABF79
:1003B000194610467FEA655C1CBF0B46024650EAB0
:1003C000013406BF52EA033591EA030F41F40021DC
:1003D00030BD00BF90F0000F04BF0021704730B562
:1003E0004FF4806404F132044FF000054FF0000137
:1003F00050E700BF90F0000F04BF0021704730B5F8
:100400004FF4806404F1320410F0004548BF4042CC
:100410004FF000013EE700BF42004FEAE2014FEA21
:1004200031014FEA02701FBF12F07F4393F07F4FFC
:1004300081F06051704732F07F4208BF704793F0FF
:100440007F4F04BF41F40021704730B54FF4607412
:1004500001F0004521F000411CE700BF50EA010215
:1004600008BF704730B54FF000050AE050EA0102BE
:1004700008BF704730B511F0004502D5404261EB2E
:1004800041014FF4806404F132045FEA915C3FF46F
:10049000D8AE4FF003025FEADC0C18BF03325FEA0C
:1004A000DC0C18BF033202EBDC02C2F1200300FABD
:1004B00003FC20FA02F001FA03FE40EA0E0021FAE2
:1004C00002F11444BDE600BF70B54FF0FF0C4CF4D0
:1004D000E06C1CEA11541DBF1CEA135594EA0C0F82
:1004E00095EA0C0F00F0DEF82C4481EA030621EABD
:1004F0004C5123EA4C5350EA013518BF52EA0335F8
:1005000041F4801143F4801338D0A0FB02CE4FF0A9
:100510000005E1FB02E506F00042E0FB03E54FF0D9
:100520000006E1FB03569CF0000F18BF4EF0010ED1
:10053000A4F1FF04B6F5007F64F5407404D25FEACD
:100540004E0E6D4146EB060642EAC62141EA555180
:100550004FEAC52040EA5E504FEACE2EB4F1FD0CC2
:1005600088BFBCF5E06F1ED8BEF1004F08BF5FEA40
:10057000500E50F1000041EB045170BD06F00046F2
:1005800046EA010140EA020081EA0301B4EB5C049F
:10059000C2BFD4EB0C0541EA045170BD41F4801197
:1005A0004FF0000E013C00F3AB8014F1360FDEBFBC
:1005B000002001F0004170BDC4F10004203C35DA98
:1005C0000C341BDC04F11404C4F1200500FA05F31B
:1005D00020FA04F001FA05F240EA020001F00042BC
:1005E00021F0004110EBD37021FA04F642EB060132
:1005F0005EEA430E08BF20EAD37070BDC4F10C045C
:10060000C4F1200500FA04F320FA05F001FA04F21F
:1006100040EA020001F0004110EBD37041F100010B
:100620005EEA430E08BF20EAD37070BDC4F1200516
:1006300000FA05F24EEA020E20FA04F301FA05F27E
:1006400043EA020321FA04F001F0004121FA04F226
:1006500020EA020000EBD3705EEA430E08BF20EAF6
:10066000D37070BD94F0000F0FD101F00046400030
:1006700041EB010111F4801F08BF013CF7D041EAB2
:10068000060195F0000F18BF704703F000465200B6
:1006900043EB030313F4801F08BF013DF7D043EA87
:1006A0000603704794EA0C0F0CEA135518BF95EA3D
:1006B0000C0F0CD050EA410618BF52EA4306D1D1C4
:1006C00081EA030101F000414FF0000070BD50EAE3
:1006D000410606BF1046194652EA430619D094EA6D
:1006E0000C0F02D150EA013613D195EA0C0F05D157
:1006F00052EA03361CBF104619460AD181EA0301AB
:1007000001F0004141F0FE4141F470014FF0000062
:1007100070BD41F0FE4141F4780170BD70B54FF0FD
:10072000FF0C4CF4E06C1CEA11541DBF1CEA13557D
:1007300094EA0C0F95EA0C0F00F0A7F8A4EB05045F
:1007400081EA030E52EA03354FEA013100F0888056
:100750004FEA03334FF0805545EA131343EA12631F
:100760004FEA022245EA111545EA10654FEA0026D4
:100770000EF000419D4208BF964244F1FD0404F58D
:10078000407402D25B084FEA3202B61A65EB0305E9
:100790005B084FEA32024FF480104FF4002CB6EBA6
:1007A000020E75EB030E22BFB61A754640EA0C0026
:1007B0005B084FEA3202B6EB020E75EB030E22BF66
:1007C000B61A754640EA5C005B084FEA3202B6EBA7
:1007D000020E75EB030E22BFB61A754640EA9C0066
:1007E0005B084FEA3202B6EB020E75EB030E22BF36
:1007F000B61A754640EADC0055EA060E18D04FEAF4
:10080000051545EA16754FEA06164FEAC30343EA93
:1008100052734FEAC2025FEA1C1CC0D111F4801F60
:100820000BD141EA00014FF000004FF0004CB6E759
:1008300011F4801F04BF01430020B4F1FD0C88BFF8
:10084000BCF5E06F3FF6AFAEB5EB030C04BFB6EB03
:10085000020C5FEA500C50F1000041EB045170BDF6
:100860000EF0004E4EEA113114EB5C04C2BFD4EB23
:100870000C0541EA045170BD41F480114FF0000EA7
:10088000013C90E645EA060E8DE60CEA135594EA23
:100890000C0F08BF95EA0C0F3FF43BAF94EA0C0F26
:1008A0000AD150EA01347FF434AF95EA0C0F7FF49B
:1008B00025AF104619462CE795EA0C0F06D152EAEF
:1008C00003353FF4FDAE1046194622E750EA4106D3
:1008D00018BF52EA43067FF4C5AE50EA41047FF4E4
:1008E0000DAF52EA43057FF4EBAE12E74A0011D296
:1008F00012F5001211D20DD56FF47873B3EB62527A
:100900000ED44FEAC12343F0004343EA505323FA85
:1009100002F070474FF00000704750EA013002D1FA
:100920004FF0FF3070474FF000007047F8B500F00F
:1009300095FF114B4FF47A7793E8030001F094FD93
:10094000C82601F0FBF800F085FD00F05BFC00F02C
:10095000B3FC0A4D0FC805F1140484E80F00AF8002
:10096000EE8000F0F7FC00F0BDFC02F0E1F8BDE81D
:10097000F84001F0B7BE00BFB45600087C03002069
:1009800070B5524C84B02378032B07D94FF4AB7168
:100990004F4804B0BDE8704003F05CBF6D46284688
:1009A00000F0F2FC95E80F0004F1240585E80F0043
:1009B00094F8243094F82820022B4CD0032B32D00A
:1009C000012B0ED02578237A012B5ED00023012D38
:1009D000A37020D075D3022D37D10223637023700A
:1009E00047E00023012A2578E36010D0022AEAD1EB
:1009F0000422012DA27002D043D3022D25D103235E
:100A00006570237004B0BDE8704000F0DBBB0323C9
:100A1000012DA370DED101236370237004B0BDE803
:100A2000704000F061BA01210020E36A25789BB292
:100A3000E0608D4284F8342004EB4202A17093837D
:100A4000E386E8D037D3022D18D0032D65702570CA
:100A5000D8D004B070BD012100222578E2608D421B
:100A600084F83C20A37084F8381027D0B3D2627089
:100A7000237004B0BDE8704000F042B96570217089
:100A8000CCE7032263702270BCE700260523012D0A
:100A90002672A3700CD014D3022DD6D10D4800F0CD
:100AA000F7FB6570267004B0BDE8704000F080B8B8
:100AB00065702670F7E760702170AFE7657023708E
:100AC000D7E7002363702370EDE700BF7C030020AD
:100AD0009CA600089003002070B5054643681921C4
:100AE000DA680A2001F040FDA889FFF783FC2AA3F9
:100AF000D3E90023FFF7E8FC294B0022FFF72EFB88
:100B0000FFF7F4FE274C284E82B23146204604F00F
:100B100067FA22461921372001F026FD6B6826214D
:100B20001A690A2001F020FD6889FFF763FC1AA307
:100B3000D3E90023FFF7C8FC194B0022FFF70EFB97
:100B4000FFF7D4FE314682B2204604F049FA22462D
:100B50002621372001F008FD6B6833215A690A20ED
:100B600001F002FD2889FFF745FC0BA3D3E9002320
:100B7000FFF7AAFC00220A4BFFF7F0FAFFF7B6FED8
:100B8000314682B2204604F02BFA2246BDE870407E
:100B90003321372001F0E8BC0CFA68F7FFFF983FDB
:100BA0000000F03FCC070020ACA6000800000000C9
:100BB0002DE9F04184B000F0C1FF0225002101269B
:100BC000474C084640238022CDE90156009501F0AC
:100BD00091FA444BA26993E80300D2F80080277D84
:100BE00001F042FC07214246084601F0BDFC3E4BA5
:100BF00093E8030001F038FC3A463C493C4804F0D5
:100C0000EFF93B4A1721502001F0AEFC284601F0D5
:100C1000A5FF2084304601F0A1FFE083002001F011
:100C20009DFF344BA08393E8030001F01DFCA269F3
:100C3000137AAB420FD0032B04D004B0BDE8F041CF
:100C400000F008BC04F11400FFF746FF04B0BDE853
:100C5000F04100F0FFBBD26819210A2001F084FCAA
:100C6000208CFFF7C7FB1CA3D3E90023FFF72CFC64
:100C7000214B0022FFF772FAFFF738FE1B4982B2C0
:100C80001B4804F0ADF91A4A1921372001F06CFC19
:100C9000A36926211A690A2001F066FCE08BFFF7A0
:100CA000A9FB0DA3D3E90023FFF70EFC124B002292
:100CB000FFF754FAFFF71AFE0C4982B20C4804F011
:100CC0008FF90B4A2621372001F04EFC04B0BDE815
:100CD000F04100F0BFBB00BF0CFA68F7FFFF983F80
:100CE0007C030020C4560008FC560008BCA600087F
:100CF000CC070020B45600080000F03F00000000C0
:100D0000F0B5714C85B094F83830012B10D1002328
:100D100094F8282084F838302361002A6ED0012A04
:100D200001D005B0F0BD00F0CFFA20610028F8D066
:100D300000F004FF0223002101220846CDE9013220
:100D400000938022402301F0D5F923695F495D6853
:100D50001A785F482D6804F043F95E4B93E803006E
:100D600001F082FB07212A46084601F0FDFB94F8BA
:100D70003C30042B22D994F83C30092B2FD9002386
:100D800084F83C300026544B93E8030001F06CFBE0
:100D90000096142332221E210A2000F017FF256935
:100DA0006F78012F30D06A68137A022B3FD0032B63
:100DB0007DD005B0BDE8F04000F04CBB94F83C306D
:100DC000464A013392E80300DBB284F83C3001F07C
:100DD0004BFB3F4A1721502001F0C6FBD2E700220F
:100DE0000A2394F83C5000920135EDB21A461621C0
:100DF0004F2084F83C5000F0E9FEC3E700F05CFAB5
:100E00002061002894D18CE7022001F0A7FE23691D
:100E10009881384601F0A2FE23695881304601F0DE
:100E20009DFE25696A682881137A022BBFD1D2689A
:100E300019210A2001F098FBA889FFF7DBFA20A30B
:100E4000D3E90023FFF740FB254B0022FFF786F98B
:100E5000FFF74CFD234982B21D4804F0C1F81C4A3B
:100E60001921372001F080FB6B6826211A690A20BE
:100E700001F07AFB6889FFF7BDFA11A3D3E90023DB
:100E8000FFF722FB164B0022FFF768F9FFF72EFD54
:100E9000144982B20E4804F0A3F80D4A26213720E7
:100EA00001F062FB05B0BDE8F04000F0D3BA28467F
:100EB000FFF712FE05B0BDE8F04000F0CBBA00BF6E
:100EC0000CFA68F7FFFF983F7C030020BCA60008DF
:100ED000CC070020C4560008B4560008FC56000891
:100EE0000000F03FACA6000830B585B000F026FE4B
:100EF0000223002101220093CDE90132084680221D
:100F00004023A94C01F0F6F8A84B257D93E8030097
:100F100001F0AAFA2A46A649A64804F061F8A54AB3
:100F20000621392001F020FB1B2212230621362046
:100F300001F02AFAA04B93E8030001F095FAA269A8
:100F4000137A022B72D0032B04D005B0BDE83040D9
:100F500000F080BA0A20D2681E2101F005FB94F847
:100F60003430208C022B00F0D580FFF743FA8AA39F
:100F7000D3E90023FFF7A8FA0022904BFFF7EEF821
:100F8000FFF7B4FC8E4982B28A4804F029F8894AF6
:100F90001E212F2001F0E8FAA3690A201A692821EE
:100FA00001F0E2FA94F83430E08B012B00F09C80E1
:100FB000FFF720FA78A3D3E90023FFF785FA002290
:100FC0007E4BFFF7CBF8FFF791FC7D4982B2794861
:100FD00004F006F8774A28212F2001F0C5FAA3690A
:100FE0000A205A69322101F0BFFA94F83430A08BFC
:100FF000002B63D0FFF7FEF967A3D3E90023FFF7C7
:1010000063FA6E4B0022FFF7A9F8FFF76FFC6C49FB
:1010100082B2684803F0E4FF664A32212F2001F0D3
:10102000A3FA05B0BDE8304000F014BA0A20D26837
:101030001E2101F099FA94F83430208C022B7FD0D5
:10104000FFF7D8F954A3D3E90023FFF73DFA0022B4
:101050005A4BFFF783F8FFF749FC594982B25548CC
:1010600003F0BEFF534A1E212F2001F07DFAA36931
:101070000A201A69282101F077FA94F83430E08BBD
:10108000012B73D0FFF7B6F943A3D3E90023FFF791
:101090001BFA4A4B0022FFF761F8FFF727FC48498B
:1010A00082B2444803F09CFF424A28212F2001F0DD
:1010B0005BFA05B0BDE8304000F0CCB9FFF79AF913
:1010C00037A3D3E90023FFF7FFF900223B4BFFF7DB
:1010D00045F8FFF70BFCC0B20090052346223221F1
:1010E0002F2001F093F930E7FFF784F92CA3D3E91F
:1010F0000023FFF7E9F90022304BFFF72FF8FFF745
:10110000F5FBC0B200900523462228212F2001F0D4
:101110007DF964E7FFF76EF921A3D3E90023FFF718
:10112000D3F90022254BFFF719F8FFF7DFFBC0B218
:101130000090052346221E212F2001F067F92BE79E
:10114000FFF758F916A3D3E90023FFF7BDF90022F2
:101150001A4BFFF703F8FFF7C9FBC0B20090052355
:1011600046221E212F2001F051F980E7FFF742F9B6
:101170000BA3D3E90023FFF7A7F900220F4BFEF7DB
:10118000EDFFFFF7B3FBC0B20090052346222821F4
:101190002F2001F03BF9D8E60CFA68F7FFFF983FE3
:1011A000C45DC7FCFFDFAF3F7C030020EC560008A6
:1011B000BCA60008CC070020B45600080000F03F91
:1011C000ACA6000808B500F0B9FC094B93E8030091
:1011D00001F04AF90A20074A142101F0C5F900F08C
:1011E00039F9BDE808404FF4FA6001F0A7BB00BF31
:1011F000C4560008D0A600080868801AB0FA80F02B
:10120000400970472DE9F0471E4F84B001F0C8F93E
:10121000B8464FF0000A48F8040BDFF8709000E081
:10122000AA46102003F002FE0AF10105EDB20446C1
:1012300010B30026012305705046A670637000F0BD
:101240004BF8C4E90106E670A6812146386801F032
:10125000CFF9404601F02CFA102DE1D16C463968E7
:101260002046002201F004FA94E80700064B83E8C8
:10127000070004B0BDE8F0876221484603F0EAFAAF
:10128000E3E700BFCC020020D0020020DCA600086B
:1012900010B5074C02460749206801F08BF908B1E8
:1012A000A06010BD201DBDE8104001F001BA00BFD4
:1012B000CC020020F911000808B5024801F0E8F955
:1012C000006808BDD002002008B5024801F0E8F926
:1012D000006808BDD0020020014B53F82000704781
:1012E0000000002010B5064C03F0CCFC204618216D
:1012F00002F0BCFD14232268E360D36210BD00BF7E
:1013000074080020114A08B51068114B426A196828
:10131000891A00290ED0C06A1A604FEA50000ADD0F
:101320008142ACBF0020012000F07EF8BDE80840FB
:1013300000F018B808BD49428842CCBF0020012007
:1013400000F072F8BDE8084000F00CB87408002006
:10135000DC02002008B501F023F9014B186008BD3C
:10136000E002002038B5074C0546206801F03EF940
:101370000A2800D938BD29462068BDE8384001F068
:1013800037B900BFE002002038B5002304460E4DF7
:1013900003602868C4E90133E36001F027F908B964
:1013A000204638BD286801F03FF905460028F7D0EF
:1013B0000FC884E80F00284603F040FD284603F0DC
:1013C0003DFD204638BD00BFE002002070B5064656
:1013D00010200D4603F02AFD044638B103232A04E9
:1013E000C0E9025206710370204670BD60210248B8
:1013F00003F030FAF8E700BFE4A7000870B506462E
:1014000010200D4603F012FD044628B10123067199
:1014100045710370204670BD7221024803F01AFA2C
:10142000F8E700BFE4A7000870B5064610200D4697
:1014300003F0FCFC044628B10223067185600370AA
:10144000204670BD8521024803F004FAF8E700BF8A
:10145000E4A7000808232DE9F04F4FF0000983B0FE
:10146000DFF884815F4CDFF884B1019398F8013094
:10147000019A5FFA89F5934280F2A68098F80330CA
:10148000B3EBC90FC0F2A98000224FF4804120467F
:1014900002F06CF8072645F0B00500224FF4005129
:1014A000204602F063F845FA06F212F0010218BF76
:1014B00001224FF40041204602F058F8013E204638
:1014C00001224FF4005102F051F8701CE5D10022C6
:1014D0004FF48041204698F80050072602F046F865
:1014E0002F0947F0100700224FF40051204602F068
:1014F0003DF847FA06F212F0010218BF01224FF43C
:101500000041204602F032F8013E4FF40051012222
:10151000204602F02BF8711CE5D100224FF48041E7
:10152000204602F023F8072605F00F0500224FF4AD
:101530000051204602F01AF845FA06F212F00102B4
:1015400018BF01224FF40041204602F00FF8013E7F
:1015500001224FF40051204602F008F8721CE5D138
:1015600098F8007098F80230BB422DD34FEAC91AA0
:10157000DBF8003001223B444FF48041204613F851
:101580000A60072501F0F2FF00224FF400512046C7
:1015900001F0ECFF46FA05F212F0010218BF012239
:1015A0004FF40041204601F0E1FF013D01224FF4DC
:1015B0000051204601F0DAFF6B1CE5D1013798F8A5
:1015C0000230FFB2BB42D3D2019B09F101090833BB
:1015D000B9F1100F01937FF449AF03B0BDE8F04FAC
:1015E00000F080BA000C0140BC030020C0070020BE
:1015F00038B500224FF48041974801F0B7FF072427
:10160000954D00224FF40051284601F0AFFFA02273
:10161000224112F0010218BF01224FF40041284676
:1016200001F0A4FF013C01224FF40051284601F0D3
:101630009DFF631CE5D100224FF48041864801F0F4
:1016400095FF0724844D00224FF40051284601F0F5
:101650008DFFAE22224112F0010218BF01224FF489
:101660000041284601F082FF013C284601224FF448
:10167000005101F07BFF601CE5D100224FF4804156
:10168000754801F073FF0724734D00224FF4005199
:10169000284601F06BFFC822224112F0010218BF58
:1016A00001224FF40041284601F060FF013C4FF455
:1016B00000510122284601F059FF611CE5D10022AA
:1016C0004FF48041644801F051FF0724624D00222D
:1016D0004FF40051284601F049FFA222224112F0A6
:1016E000010218BF01224FF40041284601F03EFFDD
:1016F000013C01224FF40051284601F037FF621CE3
:10170000E5D100224FF48041534801F02FFF072418
:10171000514D00224FF40051284601F027FF2F229F
:10172000224112F0010218BF01224FF40041284665
:1017300001F01CFF013C01224FF40051284601F04A
:1017400015FF631CE5D100224FF48041424801F0AF
:101750000DFF0724404D00224FF40051284601F0B0
:1017600005FF2422224112F0010218BF01224FF48A
:101770000041284601F0FAFE013C284601224FF4C0
:10178000005101F0F3FE601CE5D100224FF48041CE
:10179000314801F0EBFE07242F4D00224FF4005199
:1017A000284601F0E3FE8122224112F0010218BF17
:1017B00001224FF40041284601F0D8FE013C4FF4CD
:1017C00000510122284601F0D1FE611CE5D1002222
:1017D0004FF48041204801F0C9FE07241E4D00222D
:1017E0004FF40051284601F0C1FE2322224112F09D
:1017F000010218BF01224FF40041284601F0B6FE55
:10180000013C01224FF40051284601F0AFFE621C5A
:10181000E5D100224FF480410F4801F0A7FE0724D4
:101820000D4D00224FF40051284601F09FFEAF22DB
:10183000224112F0010218BF01224FF40041284654
:1018400001F094FE013C01224FF40051284601F0C2
:101850008DFE631CE5D138BD000C0140F8B50122B6
:101860004FF480518A4801F081FE00224FF48071CC
:10187000884801F07BFE012001F060F801224FF45E
:101880008071844801F072FE00224FF4805180483C
:1018900001F06CFE012001F051F8FFF7A9FE0022D3
:1018A0004FF480417A4801F061FE0724784D002210
:1018B0004FF40051284601F059FEAF23234113F0A5
:1018C000010218BF01224FF40041284601F04EFEEC
:1018D000013C01224FF40051284601F047FE661CEE
:1018E000E5D14FF47A7001F029F800224FF48041DD
:1018F000674801F03BFE0724654D00224FF400517C
:10190000284601F033FEA023234113F0010218BF43
:1019100001224FF40041284601F028FE013C2846F0
:1019200001224FF4005101F021FE601CE5D100229C
:101930004FF48041564801F019FE0724544D00220F
:101940004FF40051284601F011FE4023234113F0CB
:10195000010218BF01224FF40041284601F006FEA3
:10196000013C4FF400510122284601F0FFFD611CAB
:10197000E5D10027464D00224FF480412846072438
:1019800001F0F4FD67F04F06F6B200224FF400516B
:10199000284601F0EBFD46FA04F313F0010218BFEC
:1019A00001224FF40041284601F0E0FD013C0122F4
:1019B0004FF40051284601F0D9FD621CE5D1002208
:1019C0004FF48041284601F0D1FD072400224FF456
:1019D0000051284601F0CAFD1023234113F00102F3
:1019E00018BF01224FF40041284601F0BFFD013C21
:1019F00001224FF40051284601F0B8FD631CE5D1E7
:101A000000224FF48041284601F0B0FD0824002256
:101A10004FF40051284601F0A9FD00224FF4004187
:101A2000284601F0A3FD01224FF40051284601F0A1
:101A30009DFD631E13F0FF04E9D1802601224FF4BF
:101A40008041284601F092FD082400224FF4005105
:101A5000284601F08BFD00224FF40041284601F09A
:101A600085FD01224FF40051284601F07FFD631EE1
:101A700013F0FF04E9D1013EE0D10137102F7FF4CC
:101A80007AAF054800F07AF8BDE8F84000F032B8C7
:101A9000000C014000080140C003002010F0800F3E
:101AA00018BF7F2012F0800F18BF7F223F2928BF68
:101AB0003F213F2B28BF3F2330B4094C2578854276
:101AC00088BF2070A078904238BFA27062788A42A6
:101AD000E27888BF61709A4238BFE37030BC7047CB
:101AE000BC03002043F67F72014B1A60704700BFB1
:101AF000BC03002008B50F4B4FF48062186800212A
:101B000003F0AFF90C4B1A780AB100221A709A78D8
:101B10007E2A9CBF7F229A705A780AB100225A709E
:101B2000DA783E2A9CBF3F22DA70BDE80840FFF712
:101B300091BC00BFC0070020BC03002008B50D4BBE
:101B40004FF480621868002103F08BF90A4B1A7871
:101B50000AB100221A709A787E2A9CBF7F229A705E
:101B60005A780AB100225A70DA783E2A9CBF3F2286
:101B7000DA7008BDC0070020BC030020014B1860CC
:101B8000704700BFC0070020030615D43F2913D8B3
:101B900070B4012401F00705CB080B4EAC4000EBFC
:101BA000C31364B2F55642B925EA0404F45402465C
:101BB00070BC0B46FFF772BF70472C43F4540246CB
:101BC00070BC0B46FFF76ABFC00300202DE9F04F41
:101BD00087B002EB000A88469DF8401050450390FC
:101BE00004920593029134DA03EB0806DFF8C890FB
:101BF0000FFA88F305B20193B04526DA2B06EFB24F
:101C000050D4DDE901434FF0010B002B46D103E036
:101C1000013424B2A64218DDE3B23F2BF8D8D8082D
:101C200007EBC01019F800C003F007020BFA02F22C
:101C30002CEA020C013409F800C019463A4638462D
:101C400024B2FFF72BFFA642E6DC01352DB2554545
:101C5000D2DB4146059B049A0398013B013A434479
:101C60000244DBB2D2B207B0BDE8F04FFFF716BFB7
:101C70004FEAD30C07EBCC1C19F80C2003F007003B
:101C80000BFA00F0104309F80C0019463A463846A2
:101C9000FFF704FF013424B2A642D6DDE3B23F2BA6
:101CA000F8D8E5E7019B01331BB2B342FBDB0135FA
:101CB0002DB25545A0DBCCE7C00300202DE9F04F45
:101CC00089B00393013B0B44DBB2161801939DF8D6
:101CD0004830B0420D4682469146029322DA0127EF
:101CE00001F0070807FA08F84FFA88F84FEAD10B15
:101CF0006FEA0801019A04B202F007039F407FB225
:101D00000846F943D308DB013F2A05914FEACB1B74
:101D1000049340F2BA803F2D40F2FE80013424B299
:101D2000B442FBDB039B09F1FF362B4456449D4232
:101D30001F46F6B22CB243DA1AF0800F73B276D196
:101D4000002B029BC0F2C580DFF8A4B30295002BE4
:101D500069D1E5B23F2D06D9013424B2BC422EDA56
:101D6000E5B23F2DF8D8012305F0070803FA08F87B
:101D70006FEA08084FEAD5094FEAC9190AEB090CBE
:101D80001BF80C004FFA88F808EA00000BF80C006A
:101D90002B46524629465046B144FFF77FFE1BF8BA
:101DA0000920013408EA02082B462946324630460B
:101DB00024B20BF80980FFF771FEBC42D0DB029D14
:101DC000324629465046019B09B0BDE8F04FFFF767
:101DD00065BE01234FEAD5094FEAC9190AEB090C80
:101DE00005F007081BF80C0003FA08F84FFA88F80A
:101DF00048EA00002B46524629460BF80C00B14435
:101E00005046FFF74BFE1BF809202B4648EA020814
:101E10002946324630460BF80980FFF73FFE013471
:101E200024B2BC42CBDAE5B23F2DF8D8D1E7002B83
:101E300022DB029B002B00F0F180DFF8B4824FF030
:101E4000010903E0013424B2A742B9DDE3B23F2B1C
:101E5000F8D84FEAD30C06EBCC1C18F80C2003F092
:101E6000070009FA00F0104308F80C001946324642
:101E70003046FFF713FEE5E7013424B2BC429FDA97
:101E8000013424B2BC42F7DB9AE73F2D029B71D9A3
:101E9000002B00F0E380DDF810B0DFF85482CDF8BD
:101EA00010A0DDF804A0E2B2200602EB0B0C09D46E
:101EB00018F80C105346394308F80C1010465146D8
:101EC000FFF7ECFD013424B2A642ECDCDDF810A0F3
:101ED00028E7002B00F08280DFF814824FF0010920
:101EE00004E0013424B2BC42BFF66AAFE3B23F2B38
:101EF000F7D84FEAD30C0AEBCC1C18F80C2003F0EF
:101F0000070009FA00F0104308F80C001946524681
:101F10005046FFF7C3FDE4E7029B754FABB980461F
:101F2000E2B2210602EB0B0C0AD417F80C102B4678
:101F300008EA010107F80C1010462946FFF7AEFD2C
:101F4000013424B2A642EBDCECE6E2B2230602EB5B
:101F50000B0C0AD417F80C102B4648EA010107F8BD
:101F60000C1010462946FFF799FD013424B2A64211
:101F7000EBDCD7E6002B40F08C80CDF81C9081463E
:101F8000CDF818A0DFF86881DDF804A0E7B22106DB
:101F90000BEB070C1BD418F80C002B4609EA0000C9
:101FA00008F80C003A4629463846FFF777FD049BAF
:101FB000059A03EB070E18F80EC0534602EA0C0C04
:101FC00038463A46514608F80EC0FFF767FD01341F
:101FD00024B2A642DADCDDE906A9A3E64FF0010946
:101FE000DFF80C8104E0013424B2A7427FF7E8AEA9
:101FF000E3B23F2BF7D8D8080AEBC01018F800C09E
:1020000003F0070209FA02F22CEA020C08F800C0F9
:10201000194652465046FFF741FDE4E74FF00109EB
:10202000DFF8CC8004E0013424B2A7427FF7C8AEC9
:10203000E3B23F2BF7D8D80806EBC01018F800C061
:1020400003F0070209FA02F22CEA020C08F800C0B9
:10205000194632463046FFF721FDE4E79046DDF8A9
:1020600010B0234F0495059DE2B2230602EB0B0C42
:1020700009D417F80C104346294007F80C101046F5
:102080004146FFF70BFD013424B2A642ECDC049D6F
:1020900048E6CDE9057A9246CDF81C905FFA84F9BE
:1020A00022060BEB090C1DD4114B4A461F4613F8B0
:1020B0000C00294648EA000007F80C002B46484669
:1020C000FFF7ECFC049A534602EB090E17F80EC01A
:1020D000059A484642EA0C0C51464A4607F80EC09B
:1020E000FFF7DCFC013424B2A642D7DC73E700BF63
:1020F000C00300202DE9F04F89B09DF848409DF8BD
:102100004C70002C08BF01240693013B0B44002FA8
:10211000029102EB000B9DF85010DBB208BF0127C3
:1021200058450490019207940593039153DA9A4617
:10213000DFF8509206B2CDF800B034065FFA86F8A8
:102140003FD4DDE90245002D40F0B0804FF0010B97
:102150000AE0AAEB0503DBB23F2B1FD901352DB2F4
:102160000134AF42E4B231DD3F2CF2D8E00808EB95
:10217000C01019F800C004F007030BFA03F32CEAAF
:10218000030C09F800C02346424621464046FFF7AB
:1021900085FCAAEB0503DBB23F2BDFD8D80808EBA0
:1021A000C01019F800C003F007020BFA02F22CEA83
:1021B000020C09F800C0194642464046FFF76EFC83
:1021C000CCE7002301331BB2BB42FBDB0136009B93
:1021D00036B29E42B1DB019B029A03F1FF39049BA8
:1021E00015B29944069B5FFA89F913449A42019308
:1021F00053DACDF80090DFF88CA1DDF81C9004E0F4
:102200000135019B2DB29D4245DA0123EFB207F063
:10221000070403FA04F464B24FEAD7083F2F6FEAC9
:1022200004064FEAC818EBD8039B002B7AD11C4652
:102230000695049D5FFA84FB05EB0B02D2B21006F3
:1022400002EB08010AD41AF801C03B4606EA0C0C5E
:102250000AF801C010463946FFF720FC009BA3EBAB
:102260000B0B5FFA8BF213060BD402EB080C1AF877
:102270000C103B4631400AF80C1010463946FFF767
:102280000DFC013424B2A145D4DC069D0135019B2F
:102290002DB29D42B9DBDDF800904A46059B0299BC
:1022A000049809B0BDE8F04FFFF7F8BB00254FF0E8
:1022B000010B0AE0AAEB0503DBB23F2B1FD9013566
:1022C0002DB20134AF42E4B280DD3F2CF2D84FEAA8
:1022D000D40C08EBCC1C19F80C3004F007000BFAF6
:1022E00000F0184309F80C002346424621464046B8
:1022F000FFF7D4FBAAEB0503DBB23F2BDFD84FEA95
:10230000D30C08EBCC1C19F80C2003F007000BFAD7
:1023100000F0104309F80C00194642464046FFF70A
:10232000BDFBCCE700260695049D5FFA86FB05EB16
:102330000B02D2B2100602EB08010AD41AF801C04F
:102340003B4644EA0C0C0AF801C010463946FFF738
:10235000A5FB009BA3EB0B0B5FFA8BF213060BD4D0
:1023600002EB080C1AF80C10104621430AF80C1066
:102370003B463946FFF792FB013636B2B145D4DC15
:10238000069D83E7C00300202DE9F04702EB00091A
:1023900048452CDA05460F46DFF86C805E18B742D8
:1023A00021DA2B0625D43C464FF0010A03E0013424
:1023B000E4B2A64217DD3F2CF9D8234621462A462F
:1023C0002846FFF76BFBE20805EBC21218F8021073
:1023D00004F0070301340AFA03F3E4B24B40A642C7
:1023E00008F80230E7DC0135EDB24D45D7DBBDE83A
:1023F000F0873A460132D2B2B242FBDB0135EDB290
:102400004D45CCDBF3E700BFC00300202DE9F043CE
:10241000022B83B09DF8289002D803B0BDE8F0836A
:102420004FF0010814461D4606460F46CDF80080C1
:10243000FFF744FCA21ED2B209FB02F2094C023D96
:10244000A4FB023207EB080106EB0800EBB2C9B2AD
:10245000C0B2C2F30712CDF8288003B0BDE8F04344
:10246000FFF7B4BBD34D621082B06B4683E8030024
:10247000034A93E8030082E8030002B0704700BFFC
:10248000C40700202DE9F04F364E89B0B47994424C
:1024900065D8F37993422CBF13462E2372791B1B08
:1024A000D50852073279029518BF013502FB05F2B3
:1024B00002F10102D2B203FB02F3326818BF0295A7
:1024C000D45C13440394002C43D06A1ED2B205930B
:1024D000531C0191079006930090029B5BB3059AF1
:1024E000069B92461344019D9DF800900493019B26
:1024F0001AF8018FA5EB030B009BEFB27F2B28DCB2
:1025000000242B1939193F2B04EB0B0048FA04F275
:10251000C9B21EDC7379984206DA12F0010218BFC4
:1025200001224846FFF730FB0134082CE9D1049B17
:1025300008359A45DBD1009B079A01330093029935
:102540009B1A059ADBB20A440592039A9A42C4D8B0
:1025500001E000230393039809B0BDE8F08F2E2318
:102560009CE700BFC40700200C4B5B79C3F13F031D
:10257000994212DC70B5154612780E4604465AB1DF
:1025800020463146FFF77EFF15F8012F0444013441
:1025900004F0FF04002AF3D170BD7047C407002087
:1025A00008B50C2002F042FC0022C0E90022826043
:1025B00008BD00BF2DE9F041D0E9003593B1904648
:1025C0000F460646002403E033686D68A34209D92C
:1025D000204642462946B84701340028F4D0284610
:1025E000BDE8F08100252846BDE8F081006870470D
:1025F00038B504460C200D4602F018FC0022A368F2
:10260000C0E90052826053B15A68C0E901235A6898
:10261000906058602368A0600133236038BDC0E932
:1026200001006060F6E700BF436870B5EBB1026877
:102630001D6872B1D3E90114866861605968B342BC
:102640008C6041600AD0013A026022B1184602F063
:10265000F5FB284670BDC0E90122F7E79968013A09
:1026600081600260002AF1D1F5E71D46F1E700BF65
:1026700022B10023C0E90012836070474B68002B31
:10268000F7D09A680023C0E900128360704700BF4A
:10269000436813B15B6803B143601846704700BFDD
:1026A000436813B19B6803B143601846704700BF8D
:1026B00003689B6843601846704700BF20280AD013
:1026C000B0F5005F03D10222054B1A70704700225B
:1026D000034B1A7070470122014B1A70704700BFFC
:1026E000E4020020704700BF08B50D4B197801299E
:1026F0000CD0022909D10022084601211A70FEF7E8
:102700007DFEBDE80840FEF72DBE08BD002208464C
:102710001A70FEF773FEBDE80840FEF723BE00BF47
:10272000E40200202DE9F0431E4D83B09846064692
:102730000F46914600F0AAF82B8D092B2DD81820B2
:1027400002F074FB044640B3B9F1000F4FF00003F0
:1027500015BF022201224FF0010E4FF0000E40F291
:10276000DC5C06608780C0F8088030460E4E6374DB
:1027700084F806E0A4F816C0C4F812603946CDE922
:1027800000231A4600F0F6F820462B8D5A1C45F817
:1027900023402A8503B0BDE8F0830024204603B01F
:1027A000BDE8F083E8020020050064002DE9F84F41
:1027B000344F388D00283FD000254FF0030BA94639
:1027C0004FF0020ADFF8C08008E0A379B34235D0A9
:1027D000388D0135ADB2854226742DD257F825408B
:1027E000D8F800202368A6889B68617C1E4214BF2D
:1027F000012600260029E8D0012934D0022939D148
:1028000094F806C0E368B445A2EB030320D0A28A83
:102810009A420AD2A3681BB12046984794F806C092
:1028200084F811B06645388DD3D00135ADB28542FC
:1028300084F811902674D1D3BDE8F88F0123E260AB
:102840006374E368618AD31A8B42C1D984F811A0FA
:10285000E28A9A42BDD2A3688BB1032120469847F1
:1028600094F806C0DCE7A379B34218BF84F811904E
:10287000AED1E6E70329ABD194F806C0D2E7B4465F
:10288000CEE700BFE80200202C03002000200C4A05
:102890000C4BD16821F08071D160D16841F080711A
:1028A000D1601A6822F001021A601A6842F001022F
:1028B0001A6058605A6800BF00BF5868801A704795
:1028C000F0ED00E0001000E0704700BF70B51A4E58
:1028D000B3690133B361F36913B1F369013BF36188
:1028E000327832B3002407E062F3410332780B7090
:1028F0000134E4B294421CD2A50073195868002830
:10290000F6D003789B07F3D583685A1E0BB182601B
:1029100052B9D0E903313544984769684A680B7861
:102920008A6013F00102DFD032780134E4B29442BD
:10293000E2D3FFF7C9FF70BD14030020EFF3058356
:102940003BB1074A20B11368DB03FCD50138F9E736
:102950007047044A916993695B1A8342FBD37047BD
:1029600010E000E014030020014B9869704700BF9D
:1029700014030020002900F0AB8000F1404310B4A4
:10298000A3F58433CC074FEA932307D55148DCB233
:1029900030F8142042F0010220F81420880707D5EF
:1029A0004C48DCB230F8142042F0020220F8142027
:1029B0004A0707D54748DCB230F8142042F0040239
:1029C00020F814200C0707D54248DCB230F8142058
:1029D00042F0080220F81420C80607D53D48DCB2B2
:1029E00030F8142042F0100220F814208A0607D58F
:1029F0003848DCB230F8142042F0200220F81420CD
:102A00004C0607D53348DCB230F8142042F04002BF
:102A100020F81420080607D52E48DCB230F8142020
:102A200042F0800220F81420CA0507D52948DCB2FC
:102A300030F8142042F4807220F814208C0507D559
:102A40002448DCB230F8142042F4007220F814203C
:102A5000480507D51F48DCB230F8142042F48062E4
:102A600020F814200A0507D51A48DCB230F81420E3
:102A700042F4006220F81420CC0407D51548DCB2DB
:102A800030F8142042F4805220F81420880407D52E
:102A90001048DCB230F8142042F4005220F8142020
:102AA0004A0407D50B48DCB230F8142042F48042C7
:102AB00020F81420CA0B09D00649DBB231F81320E4
:102AC0006FEA42426FEA524221F8132010BC70476D
:102AD000704700BF34030020134B14489A7E10B592
:102AE0000132A0FB0210400800EB4000101A821CCB
:102AF00003EB820253F82040516882B0611A0191C1
:102B00000199C0B2987681EAE173A3EBE173042BDB
:102B100001DC02B010BD21465460FEF757FC02B044
:102B2000BDE81040FEF71EBC50030020ABAAAAAAC5
:102B300010B5002401F014FD01F07EFC054B0322CA
:102B40005C761C769C761946BDE81040024800F081
:102B5000FFB800BF5003002000080020014B53F8CD
:102B600020007047500300204FF47A7370B50D4D6C
:102B70000D4A29781268B3FBF1F30646B2FBF3F075
:102B800000F0C8FA08B90F2E01D9012070BD044623
:102B9000024631464FF0FF3000F07AFA6E60204670
:102BA00070BD00BF4002002048020020074A08B55F
:102BB0001368032043F01003136000F057FA00205D
:102BC000FFF7D2FF01F0FEFE002008BD002002400A
:102BD000002871D0836A70B50446002B62D0236848
:102BE0009A68D00749D4A26AD20640D4D4E9020533
:102BF000A26A616822F48852E66922F0020242F079
:102C000002023143B0F5807FA26241EA4502616968
:102C10005DD0012800F08780012900F0938058687A
:102C2000494920F46940586000209D6829401143BB
:102C30009960D96A454D21F470010143D9629B68BE
:102C40001D40AA423AD00120A36A23F0120343F0A8
:102C50001003A362E36A0343E36270BDA36A43F017
:102C60001003A362E36A43F00103E362A36AA36A69
:102C7000012043F01003A36270BD9A6822F00102A4
:102C80009A60FFF771FE054604E0FFF76DFE401BFA
:102C90000228E3D823689A68D107F6D4A26AD2063C
:102CA000E5D4A3E7C36280F8243001F013FC236865
:102CB0009A68D007E1D496E7012070470020E062CF
:102CC000A36A23F0030343F00103A36270BD01294B
:102CD0000ED058681C4920F4694040F48070586058
:102CE0009868014011439960216901390805A0E7FE
:102CF0000646F5B9A1694D1E46EA453545F400661C
:102D00005D68114925F4694535435D609D68B0F5FE
:102D1000807F01EA050141EA02019960E4D00128BF
:102D2000E2D0002085E7012908BF4FF48076E0D08B
:102D3000CFE7A16A41F02001A162E16A41F00101FF
:102D4000E162DDE70026D4E7FDF7E1FFFE0E1FFF9D
:102D50002DE9F043554B056883B09D427ED003F5C5
:102D600080639D427AD090F82430012B00F08D8052
:102D70000023904601220193AB680F46D907044611
:102D800080F8242021D44A4B4A491B68AA68A1FB39
:102D9000031342F001029B0CAA600193019B2BB12B
:102DA000019B013B0193019B002BF9D1FFF7DCFD57
:102DB000814605E0FFF7D8FDA0EB0900022857D8AF
:102DC0002568AE6816F00106F4D0A36A3A4A23F4E7
:102DD000706323F0010343F480739542A36258D0DB
:102DE000A36A23F48013A3626B685A0505D5A36A0E
:102DF00023F4405343F48053A36200266FF0020291
:102E0000A36A206A13F4805318BFE36A2B4918BFE2
:102E100023F00603E3622A4B84F82460C0E90A1316
:102E20002849434601632A60A9683A4641F4807103
:102E3000A96005F14C0100F0CFF9304623689A688B
:102E400002F46022B2F5602F9A680CBF42F4A0022F
:102E500042F480129A6003B0BDE8F083134B5B68C4
:102E600013F4702F3FF47FAF012003B0BDE8F0836F
:102E70000120A36A84F8246043F01003A362E36A8C
:102E80000343E36203B0BDE8F083022003B0BDE872
:102E9000F083064B5A6812F4702FA1D0A26A42F454
:102EA0008012A2625B685B05A7D5A0E70024014001
:102EB0004802002083DE1B4300280140CD2E00087D
:102EC000212F0008312F0008704700BF436A9A6A1B
:102ED00012F0500F02D01B6A1B6B18479A6A1968D0
:102EE00042F4007210B59A628A6802F46022B2F568
:102EF000602F03D01846FFF7E7FF10BDDA68002AFD
:102F0000F8D19A6A22F480729A629A6AD204F1D451
:102F10009A6A42F001029A62ECE700BF704700BF74
:102F200008B5406AFFF7FAFF08BD00BF704700BF51
:102F300008B5436A9A6A184642F040029A62DA6A11
:102F400042F00402DA62FFF7F1FF08BD002270B41C
:102F500090F8243083B0012B01925FD001234D689B
:102F60000468062D80F824300A6805EB85034FF0CD
:102F70001F0625D90C2D47D8233B256B9E4025EAFB
:102F8000060502FA03F32B432363092A8B684FF0EB
:102F9000070602EB420123D91E39E5688E408B40BB
:102FA00025EA06010B43E360A2F11003012B22D9AD
:102FB0000023002280F82420184603B070BC70471C
:102FC000053B656B9E4025EA060502FA03F32B4399
:102FD000092A63634FF007068B6802EB4201DBD8D6
:102FE00025698E408B4025EA06010B432361A2F13F
:102FF0001003012BDCD81A4B9C4214D0826A0123A7
:1030000042F020028262D4E7413BE56A9E4025EA15
:10301000060502FA03F32B43E362B6E702231846E0
:1030200003B070BC7047A3681B02C1D4A368102A08
:1030300043F40003A360BBD10A4B0B4A1B68A2FBFD
:1030400003239B0C03EB83035B000193019B002B89
:10305000AED0019B013B0193019B002BF9D1A7E767
:10306000002401404802002083DE1B434FF6FF018D
:10307000064A0002D36800F4E0600B4043F0BF63EF
:1030800043F400330343D360704700BF00ED00E01A
:10309000184B30B4DB68C3F30223C3F10705042DDA
:1030A00003F1040428BF0425062C19D94FF0FF347E
:1030B000033B9C4022EA04044FF0FF32AA4021EA7D
:1030C000020101FA03F2224312010028D2B20ADB04
:1030D00000F1604000F5614080F8002330BC70478B
:1030E00000242346E8E7044B00F00F0003441A765F
:1030F00030BC704700ED00E0FCEC00E0012300F084
:103100001F01034A40098B4042F82030704700BF3E
:1031100000E100E00138B0F1807F0DD230B4F0253D
:1031200000220721054B064C586084F823501046B6
:1031300030BC9A60196070470120704710E000E0D1
:1031400000ED00E0044A042813680CBF43F00403B8
:1031500023F004031360704710E000E0704700BFE5
:1031600008B5FFF7FBFF08BD70B30346F0B4D0E924
:103170000126002401253243DE68006832431349EA
:103180001E69134F014432435E69A7FB017132434C
:103190009E69DF69324306680909890026F47F5673
:1031A0003A4326F0300619640A493243D963026073
:1031B0002046C3E90A44C3E90C449C6383F82040D9
:1031C00083F82150F0BC704701207047F8FFFDBF25
:1031D000CDCCCCCC00000240F0B590F82040012CC2
:1031E00032D0012490F8215080F82040A54225D10A
:1031F00000264FF0020E046886632668076CD0F83C
:103200003CC0BD4026F00106476880F821E02660FA
:10321000CCF804506360C36A102F0BBFA260A1609A
:10322000E160E2609BB1236843F00E03236000235A
:103230002268184642F001022260F0BD00220223FB
:1032400080F820201846F0BD02231846F0BD236800
:1032500023F004032360236843F00A032360E6E7B6
:10326000042270B4D0E90F61346803688A402242B6
:103270001D681FD06A071DD51A68910603D41A6805
:1032800022F004021A603F4A93425CD01432934207
:1032900061D01432934268D0143293426BD014320E
:1032A00093425DD0143293420CBF4FF480034FF031
:1032B000806349E002228A40224222D0AA0720D518
:1032C0001A68910606D401211A6822F00A021A60CF
:1032D00080F821102B4A93422BD01432934242D0D3
:1032E0001432934244D01432934236D01432934273
:1032F00044D0143293420CBF4FF400134FF00073CC
:1033000018E008228A4022421BD02A0719D5012240
:1033100000251C6802FA01F124F00E041C60036B06
:103320007160826380F8212080F820504BB170BC1E
:10333000184702230021144C826A636080F8201031
:103340003AB970BC704704230F49C26A4B60002A27
:10335000F7D070BC10474023F6E74FF40053E9E77D
:103360004FF48023F0E72023E4E74FF48063EBE79A
:103370004FF40073DEE74FF48043E5E74FF400338A
:10338000D8E700BF08000240000002402DE9F04FDE
:103390004FF0000883B04446DFF8C0C1694EDFF843
:1033A000C0E102E00134102C78D001230A68A34068
:1033B0001A409342F6D14D68122D00F09C807ED8C1
:1033C000022D00F0948074D9032D00F08D80112D12
:1033D00002D1CB6803F10408FF2A62D88246036851
:1033E000A5004FF00F0909FA05FB23EA0B0308FAC1
:1033F00005F52B43CAF80030D1F804A01AF0805F1D
:10340000D0D0514F24F00305BB6905F1804543F04E
:103410000103BB61BB6905F5803503F0010301932E
:1034200004F0030B019B4FEA8B0BAB6809FA0BF915
:10343000604523EA09030FD0704560D0434FB8427E
:1034400078D0434FB8420CBF4FF003094FF0040946
:1034500009FA0BFB43EA0B03AB6033681AF4803FB5
:1034600014BF13439343336073681AF4003F14BFCF
:10347000134393437360B3681AF4801F14BF13435C
:103480009343B360F3681AF4001F04F1010414BFFE
:103490001A4323EA0202102CF26086D103B0BDE881
:1034A000F08F04F18045083D4368AD0000F1040A47
:1034B00097E7A5B1012D8FD1D1F80C808CE7254F6E
:1034C000BD420CD029D9244FBD4208D007F5803722
:1034D000BD4204D0DFF88C904D457FF47DAF8D6800
:1034E000A5B94FF0040877E74FF0000874E7CB6800
:1034F00003F1080870E7CB6803F10C086CE74FF0A4
:10350000010909FA0BFB43EA0B03A5E7012D0CBFE8
:10351000036143614FF008085EE7DFF84C904D45CA
:10352000DDD009F580394D457FF456AF8D68002D0B
:10353000D7D0EBE74FF0020909FA0BFB43EA0B0384
:103540008AE700BF00040140001002400010014063
:10355000001401400000211000003110000801405B
:10356000000C0140000022100000111002B90904F3
:1035700001617047044A5169014200D1704708B5A2
:103580005061FFF79BF808BD000401402DE9F041B0
:10359000036882B0DD07044630D5AB494A6802F0C3
:1035A0000C02042A00F0DA804A6802F00C02082AB1
:1035B00000F0D0806368B3F5803F00F00F81002BEE
:1035C00000F02781B3F5A02F00F0B5819E4B1A685B
:1035D00022F480321A601A6822F480221A60FFF7FF
:1035E000C3F9994D064605E0FFF7BEF9801B642834
:1035F00000F20B812B689A03F6D523689F0728D524
:10360000914A516811F00C0F00F0B680516801F03A
:103610000C01082900F0AC802369002B00F04181E7
:1036200001228A4B884D1A60FFF79EF9064605E095
:10363000FFF79AF9801B022800F2E7802B689807B1
:10364000F6D52B68626923F0F80343EAC2032B60C6
:1036500023681A0722D5A369002B00F09880012265
:103660007B4B794D1A60FFF77FF9064605E0FFF7BF
:103670007BF9801B022800F2C8806B6A9B07F6D595
:10368000744B754A1B68A2FB03235B0A019300BFBE
:10369000019B5A1E0192002BF9D123685D0739D591
:1036A000694BDA69D00040F1828000256B4B1A68C3
:1036B000D10540F19980E368012B0FD0002B00F079
:1036C000D180052B604B1A6A00F0FC8022F00102C9
:1036D0001A621A6A22F004021A6204E05A4A136A51
:1036E00043F001031362FFF73FF9574E804641F262
:1036F000883706E0FFF738F9A0EB0800B84200F27F
:103700008480336A9B07F5D525B14F4AD36923F0EE
:103710008053D361E269CAB14B4D696801F00C0175
:10372000082930D0022A4FF000014D4A00F0D28023
:103730001160FFF719F92C46054604E0FFF714F96C
:10374000401B022861D823689B01F7D4002002B0F7
:10375000BDE8F0814A68D0037FF52CAF3A4A126881
:1037600091037FF54BAF6268002A7FF447AF0AE010
:103770005268D6033FF550AF334A1268950721D5FA
:103780002269012A1ED0012002B0BDE8F081304A32
:103790002D4D1360FFF7E8F8064604E0FFF7E4F864
:1037A000801B022831D86B6A9F07F7D475E7DA6966
:1037B000012542F08052DA61DB6903F08053009307
:1037C000009B73E7204960690A6822F0F80242EA28
:1037D000C0020A601A077FF561AF3CE71A4A136816
:1037E00043F480331360FAE61A681E4642F480728E
:1037F0001A60FFF7B9F807463368DA053FF55BAFA3
:10380000FFF7B2F8C01B6428F6D9032002B0BDE868
:10381000F08103F1804303F504331A681D4622F456
:1038200080321A601A6822F480221A60FFF79CF82E
:10383000064604E0FFF798F8801B6428E5D82B685B
:103840009B03F7D4D9E600BF0010024000004242BB
:103850008004424248020020D34D621000700040B4
:103860006000424203F1804303F504331A6A1E46A6
:1038700022F001021A621A6A41F2883822F0040228
:103880001A62FFF771F8074604E0FFF76DF8C01BF6
:103890004045BAD8336A9807F7D4002D3FF43AAFC1
:1038A00033E72B4A2B4D1360FFF75EF8064604E022
:1038B000FFF75AF8801B0228A7D82B689907F7D47E
:1038C0002368C6E642F004021A621A6A42F0010254
:1038D0001A6208E71160FFF747F8064604E0FFF7B1
:1038E00043F8801B022890D82B689901F7D4226AEC
:1038F000B2F5803F05D16B68A16823F400330B4318
:103900006B600125134B606A5968024321F47411FE
:1039100011480A435A6005601C46FFF725F8054622
:1039200005E0FFF721F8401B02283FF66EAF236841
:103930009A01F6D50AE703F18043A3F53C331A68F0
:1039400042F480221A601A6842F480321A6046E615
:10395000000042420010024060004242634A136885
:1039600003F007038B420BD2136823F007030B43CA
:103970001360136803F007038B4201D001207047E6
:103980002DE9F041036886B09A0706D5584C856842
:10399000626822F0F0022A436260DB0704460E46AA
:1039A00025D54268524B012A1B6800F09980022AF3
:1039B00000F0928098072AD54D4D41F288386B6807
:1039C00023F0030313436B60FEF7CEFF63680746E3
:1039D000012B64D0022B06D16CE0FEF7C5FFC01BA3
:1039E000404500F281806B6813F00C0FF5D13F4A1F
:1039F000136803F00703B3420DD9136823F00703DC
:103A000033431360136803F00703B34203D001206C
:103A100006B0BDE8F0812368590706D53449E0684F
:103A20004A6822F4E06202434A601A0707D5304A26
:103A30002169536823F4605343EAC103536040F2A1
:103A400001222C4B06ACADF804200FCB04E90F008B
:103A500027494A6802F00C03082B10D0264B244A51
:103A6000264852682649C2F30312825C0020D340E4
:103A70000B60FFF779F8002006B0BDE8F081C2F3D3
:103A80008343234413F8100CD30319D41D4B03FBB9
:103A900000F3E4E7FEF768FFC01B404524D86B68DD
:103AA00003F00C03042BF5D1A1E7FEF75DFFC01B6B
:103AB000404519D86B6803F00C03082BF5D196E745
:103AC0004A680D4BC2F3404203FB00F3224412F854
:103AD000142CB3FBF2F3C2E79D013FF56DAF96E7FF
:103AE0009F033FF569AF92E7032091E70020024072
:103AF0000010024074A6000800127A0084A6000894
:103B00004802002000093D00014B1868704700BFC3
:103B1000480200202DE9F0410446006882B0C50744
:103B20002AD53A4BDA69D1003DD5394B00251A68C0
:103B3000D20546D5354960680A6A12F440720FD042
:103B400000F4407393420BD0012700260B6A314AE0
:103B500023F44070176016600862D80745D4606887
:103B60002A4A136A23F44073034313621DB1D369D5
:103B700023F08053D3612068830706D5234AA168C8
:103B8000536823F440430B43536010F0100007D0F8
:103B900000201E4AE168536823F480030B435360FE
:103BA00002B0BDE8F081DA69012542F08052DA61A5
:103BB000DB6903F080530193019B154B1A68D20512
:103BC000B8D41A681E4642F480721A60FEF7CCFE22
:103BD00007463368DB05ADD4FEF7C6FEC01B64287C
:103BE000F7D9032002B0BDE8F0810E46FEF7BCFE17
:103BF00041F288378046336A9A07B0D4FEF7B4FEA4
:103C0000A0EB0800B842F6D9EBE700BF0010024075
:103C10000070004040044242002836D090F83D3009
:103C200070B503F0FF0204460BB302232268204E56
:103C300084F83D30B2421368A569E068616826D017
:103C4000B2F1804F18D0A6F59436B24214D006F5E2
:103C50008066B24210D023F080032B431360D06201
:103C6000916201230020536184F83D3070BD80F8DB
:103C70003C2001F053F8D8E7A66823F070033343E3
:103C8000266923F440733343E5E701207047A668B3
:103C900023F070033343266923F44073334323F046
:103CA00080032B431360D062916263691363D8E78A
:103CB000002C014003680020DA6842F00102DA605B
:103CC0001A6842F001021A60704700BF002836D01F
:103CD00090F83D3070B503F0FF0204460BB30223A9
:103CE0002268204E84F83D30B2421368A569E0682E
:103CF000616826D0B2F1804F18D0A6F59436B24252
:103D000014D006F58066B24210D023F080032B4316
:103D10001360D062916201230020536184F83D302A
:103D200070BD80F83C2000F0E3FFD8E7A66823F0E0
:103D300070033343266923F440733343E5E70120DE
:103D40007047A66823F070033343266923F4407359
:103D5000334323F080032B431360D0629162636985
:103D60001363D8E7002C014000286AD02DE9F846FB
:103D700090F83D3004460D4603F0FF02002B52D070
:103D80000222236884F83D209A68374E22F0070209
:103D90009A60B3421A68A769E168606853D0B3F1CA
:103DA000804F45D0A6F59436B34241D006F58066E3
:103DB000B3423DD022F080023A431A60D962986241
:103DC00001265E61D3F808C09F69A868A96927F435
:103DD00040772A6927F0030740EA01213943EF6958
:103DE000E868120142EA0722D5F820A0D5F814901D
:103DF0001F6A02436868D5F800E021F47C4140EA7C
:103E0000091021F0FC0142EA0A3227F0AA07074311
:103E10004CEA0E050A439D6000209A611F6284F8F7
:103E20003D60BDE8F88680F83C2000F093FFA7E7EE
:103E3000A66822F070023243266922F440723243AF
:103E4000B8E701207047A66822F070023243266965
:103E500022F44072324322F080023A431A60D9625F
:103E6000986262691A63ABE7002C01400368C1B134
:103E700004290DD11A6A22F010021A621A6A42F05D
:103E800010021A621A68002042F001021A6070479C
:103E90001A6A22F001021A621A6A42F001021A62D8
:103EA000E8E71A6A22F001021A621A6A42F0010275
:103EB0001A62E7E790F83C30012B00F0C580F0B4BF
:103EC0000223012480F83D3080F83C400C2A36D88B
:103ED000DFE802F03E353535673535359135353516
:103EE000070003688F681D6A0E6825F480551D62FF
:103EF0001A6A6C4DD3F804C0DC6922F4005224F431
:103F0000E644AB4242EA073244EA062404D14D6952
:103F10002CF4804C4CEA851C4D68C3F804C0DC616D
:103F20001D641A62DC690D6944F40064DC61D969BE
:103F300021F48061D961DA6942EA0522DA6100235D
:103F4000F0BC012280F83C3080F83D2018467047D4
:103F500003688F681D6A0E6825F001051D621A6AE4
:103F6000504DD3F804C09C6922F0020224F073047F
:103F7000AB4242EA070244EA060476D04D68C3F831
:103F800004C09C615D631A629C690D6944F0080479
:103F90009C61996921F0040199619A692A439A61A7
:103FA000CDE703688F681D6A0E6825F010051D6255
:103FB0001A6A3C4DD3F804C09C6922F0200224F414
:103FC000E644AB4242EA071244EA06245BD04D685D
:103FD000C3F804C09C619D631A629C690D6944F436
:103FE00000649C61996921F4806199619A6942EA4F
:103FF00005229A61A3E703688F681D6A0E6825F49D
:1040000080751D621A6A274DD3F804C0DC6922F45A
:10401000007224F07304AB4242EA072244EA060429
:1040200014D04D68C3F804C0DC61DD631A62DC693A
:104030000D6944F00804DC61D96921F00401D961FB
:10404000DA692A43DA617AE702207047CE6822F4FF
:104050000062D1E905752CF4405C42EA06223D433A
:1040600022F480624CEA051CDBE7CF6822F00802EC
:10407000D1E905562CF4407C3A43354322F0040242
:1040800045EA0C0C7AE7CE6822F08002D1E905758A
:104090002CF4406C42EA06123D4322F040024CEA06
:1040A000850C94E7002C014090F83C30012B67D040
:1040B0000222F0B40125036880F83D209A680C685C
:1040C00022F47F4222F07702402C80F83C509A6024
:1040D00000F0938018D9702C7FD02BD9B4F5805F75
:1040E00076D0B4F5005F1CD1D1E90152CC68996853
:1040F0002A4342EA042221F47F410A439A609A68E3
:1041000042F480429A600CE0102C42D02FD9202C2F
:1041100038D0302C05D19A6822F0700242F0370274
:104120009A600023F0BC012280F83C3080F83D20EA
:1041300018467047502C33D0602CF2D11C6A4D6861
:1041400024F01004CE681C6299691A6A21F4704147
:1041500022F0A00242EA051241EA063199611A6290
:104160009A6822F0700242F067029A60D9E7002C48
:10417000D7D19A6822F0700242F007029A60D0E725
:10418000022070479A6822F0700242F027029A607B
:10419000C7E79A6822F0700242F017029A60C0E7FF
:1041A0001D6A1E6A4C6826F00106CF681E629A6975
:1041B00025F00A0122F0F00242EA071221439A6137
:1041C00019629A6822F0700242F057029A60A8E7DA
:1041D0009A6822F007029A60A3E7D1E90152CC68FD
:1041E00099682A4342EA042221F47F410A439A60F3
:1041F0009A6842F077029A6093E71D6A1E6A4C68DB
:1042000026F00106CF681E629A6925F00A0122F0A5
:10421000F00242EA071221439A6119629A6822F079
:10422000700242F047029A607BE700BF704700BF10
:10423000704700BF704700BF704700BF036810B5EC
:104240001A690446910702D5DA6892075FD41A69A1
:10425000500702D5DA68510746D41A69120702D509
:10426000DA6810072ED41A69D20602D5DA68D006A9
:1042700018D41A69D10702D5DA68D2075DD41A6951
:10428000100602D5DA6811065FD41A69520602D503
:10429000DA68500661D41A69910602D5DA68920686
:1042A00043D410BD6FF0100108221961DB6920466C
:1042B00013F4407F227764D0FFF7BAFF002223680F
:1042C0002277D6E76FF0080104221961DB692046E6
:1042D0009907227752D1FFF7A9FF2046FFF7AAFFDF
:1042E000002223682277BEE76FF0040102221961E1
:1042F0009B69204613F4407F22773CD1FFF796FF5D
:104300002046FFF797FF002223682277A5E76FF08A
:104310000201012219619B6902779B0725D0FFF7F3
:1043200087FF00222368227791E76FF02002204662
:10433000BDE810401A6100F07BB86FF00102204622
:104340001A6100F05DFA236899E76FF08002204659
:104350001A6100F06FF8236897E76FF0400220467B
:104360001A61FFF769FF236895E7FFF75FFF2046B3
:10437000FFF760FFD5E7FFF75BFFC4E7FFF758FFE4
:10438000AEE7FFF753FF2046FFF754FF96E700BF65
:1043900090F83C30012B22D00246D1E9020310B440
:1043A000002423F440730343486823F480630343E9
:1043B000086823F400630343086923F4805303432C
:1043C000486923F400530343886923F44043116888
:1043D00003434B64204682F83C4010BC70470220E7
:1043E000704700BF90F83C30012B1ED002460220DF
:1043F000F0B400250126136882F83D005C680F6860
:1044000024F070045C6058684C68384358609868C1
:1044100020F080009860996828462143996082F8CE
:104420003D6082F83C50F0BC70470220704700BFEE
:10443000704700BF704700BF70B500224FF4807610
:1044400001254FF4602403211F4B204884B01860DD
:1044500018469E60DD60DC61C3E904125A60FEF715
:10446000B7FB58BB0023012201A917480193CDE9EE
:104470000223FEF76BFDE0B90122022301A91248D5
:10448000CDE90123FEF762FD70B90222032301A9E1
:104490000D48CDE90123FEF759FD18B161210C4803
:1044A00000F0D8F904B070BD5821094800F0D2F9E5
:1044B000EBE74F21064800F0CDF9DDE74521044840
:1044C00000F0C8F9CEE700BF00080020002401403A
:1044D000FCA700081D4B02689A4200D07047F0B557
:1044E00005460F20032403F56C439A6987B042F414
:1044F00000729A619B6902A903F400730290019310
:104500001348019B0394FEF741FF00234FF4007012
:1045100080274FF4006620214FF400520D4CC4E96F
:1045200001330D4B20612046E7602360C4E905613B
:10453000E261FEF719FE18B92C62656207B0F0BDA2
:104540008821064800F086F9F6E700BF0024014004
:10455000000801403008002008000240FCA70008C5
:1045600000220B4B10B55C6982B044F001045C6121
:104570005B69114603F0010301930B20019BFEF7D9
:1045800087FD0B2002B0BDE81040FEF7B7BD00BFAD
:1045900000100240384B2DE9F0419A6988B042F092
:1045A00010029A619A69354F02F010020092009A47
:1045B00000229969DFF8CC8041F0200199619C6963
:1045C000384604F020040194019C14469D694FF67E
:1045D000167145F004059D619D69012605F00405ED
:1045E0000295029D9D6945F008059D619B69022524
:1045F00003F008030393039BFEF7B8FF22464046EF
:104600004FF48071FEF7B2FF4FF4005304A91C4829
:10461000CDE904340696FEF7B9FE4FF6167304A9E9
:1046200038460493CDE905640795FEF7AFFE4FF4D5
:104630008073404604A90493CDE905640795FEF70D
:10464000A5FE202304A938460493CDE90546FEF7CC
:104650009DFE224629461720FEF71AFD1720FEF779
:104660004DFD224629462820FEF712FD2820FEF7A0
:1046700045FD08B0BDE8F08100100240000C01408B
:10468000001001400008014030B59FB005460C46BF
:10469000FDF754FA0223002101220093CDE90132F3
:1046A000084680224023FDF725FD1F4B93E80300B9
:1046B000FDF7DAFE1D4A05211420FDF755FFAA88F3
:1046C0001B4905A800F08CFC05AA0F211420FDF75A
:1046D0004BFFBCB1012C0CD0022C1CD0032C04D1FC
:1046E000144A19211420FDF73FFFFCF7B3FE1FB059
:1046F00030BD114A19211420FDF736FFFCF7AAFE40
:104700001FB030BD0D4A19211420FDF72DFFFCF715
:10471000A1FE1FB030BD0A4A19211420FDF724FF65
:10472000FCF798FE1FB030BDB45600080CA8000876
:10473000BCA6000838A8000824A8000818A800088B
:1047400030A8000830B59FB005460C46FDF7F6F9D5
:104750000223002101220093CDE901320846802284
:104760004023FDF7C7FC1F4B93E80300FDF77CFED9
:104770001D4A05211420FDF7F7FEAA881B4905A84C
:1047800000F02EFC05AA0F211420FDF7EDFEBCB1B0
:10479000012C0CD0022C1CD0032C04D1144A19215A
:1047A0001420FDF7E1FEFCF755FE1FB030BD114AA5
:1047B00019211420FDF7D8FEFCF74CFE1FB030BDC8
:1047C0000D4A19211420FDF7CFFEFCF743FE1FB060
:1047D00030BD0A4A19211420FDF7C6FEFCF73AFE47
:1047E0001FB030BDB456000840A80008BCA60008A1
:1047F00038A8000824A8000818A8000830A8000855
:10480000124A38B5D168124C0131D160D068D188D4
:104810002368B0FBF1F505FB11010133236009B9F1
:104820000121117259070CD0DA0706D59B0700D079
:1048300038BDBDE83840FCF765BDFEF74DF923688B
:10484000F4E7FDF751FF2368EEE700BF7C0300208B
:104850006C03002000B5134B8FB005460C4693E85F
:104860000300FDF701FEFDF769F905210E4A084630
:10487000FDF77AFE2A460D4901A800F0B1FB01AA16
:1048800019210020FDF770FE2246094901A800F019
:10489000A7FB01AA2D210020FDF766FEFCF7DAFD3B
:1048A000FEE700BFB45600084CA8000854A8000852
:1048B00060A8000830B510210224012500224FF421
:1048C000601395B00AA80A941194CDE90E51CDE970
:1048D0001223FEF75BFE48BB03460F254FF48062B0
:1048E000214605A8CDE90643099305950892FFF7EF
:1048F00035F828BB4FF4404301A801940393FFF718
:1049000009F90446B8B9FFF7FFF8104BA3FB0030D4
:104910008009FEF7FFFB0420FEF714FC2246214627
:104920004FF0FF30FEF7B4FB15B030BD4FF4997176
:104930000748FFF78FFF40F247110548FFF78AFF4E
:104940004FF4A0710248FFF785FF00BFD34D6210FE
:104950006CA80008002408B5FEF728F9134DFFF7EE
:10496000A9FFFFF717FEFFF7FBFD00F051F9FFF776
:1049700063FD00F0CBF800F085F9FBF7D7FF0C489A
:10498000FFF798F922460B4B4FF400510A482C725E
:10499000FDF7C8FE2246094B20210948FDF7C2FE5B
:1049A000FBF7EEFFFDF702FFFAE700BF7C030020F4
:1049B000F40800208946000800100140454700081F
:1049C000000C0140254B00B59A6983B042F001020A
:1049D0009A619A69032002F001020092009ADA6952
:1049E00042F08052DA61DB6903F080530193019B4E
:1049F000FEF73CFB00226FF00B001146FEF748FB70
:104A000000226FF00A001146FEF742FB00226FF011
:104A100009001146FEF73CFB00226FF0040011462E
:104A2000FEF736FB00226FF003001146FEF730FB65
:104A300000226FF001001146FEF72AFB00224FF022
:104A4000FF301146FEF724FB054A536823F0E0636C
:104A500043F00073536003B05DF804FB00100240A4
:104A600000000140704700BFFEE700BFFEE700BF47
:104A7000FEE700BFFEE700BF704700BF704700BF02
:104A8000704700BF08B5FDF721FFBDE80840FEF7FD
:104A900067BB00BF0148FEF7E3BB00BF3008002042
:104AA0002020FEF767BD00BF0148FFF7C7BB00BF6E
:104AB000F40800204FF40050FEF75CBD30B44FF412
:104AC0001F054FF000640E4B0E4A19680E4841F066
:104AD0000101196059680A405A601A6822F084720C
:104AE00022F480321A601A6822F480221A605A680E
:104AF00022F4FE025A609D60846030BC704700BFA3
:104B0000001002400000FFF800ED00E0002310B5A7
:104B10003B4C3C4A94B02046C4E90133C4E903331A
:104B2000C4E905332260FFF7D1F800283AD1002309
:104B300069463348CDE90033FFF754FC002859D1CA
:104B400060200023069006A904222D48CDE90733F2
:104B5000CDE90933CDE90B33FFF7ACF9002844D197
:104B6000082206A92648FFF7A5F9002838D106A98A
:104B70000C222348FFF79EF968BB00234FF4005234
:104B80000DA91F48CDE90D33CDE90F331193CDE9C0
:104B90001223FFF7FDFB50B922681A4B9A420ED040
:104BA00014B010BD45211848FFF754FEBFE76E2131
:104BB0001548FFF74FFE2268124B9A42F0D10223AC
:104BC0004FF4606202A91148CDE902230593FEF774
:104BD000DDFB14B010BD62210B48FFF73BFECCE7B4
:104BE0005D210948FFF736FEC1E758210648FFF767
:104BF00031FEB5E74C210448FFF72CFEA0E700BFCB
:104C0000B4080020002C01407CA8000800080140E6
:104C100030B500224FF0804540F27F2440F2E7316A
:104C2000164B87B01846C3E90054C3E902211A6144
:104C30009A61FEF7F1FFD8B94FF4805306A941F805
:104C4000103D0E48FFF730FA68B9002369460B485B
:104C5000CDE90033FFF7C6FB18B18F210848FFF7F5
:104C6000F9FD07B030BD88210548FFF7F3FDECE7FB
:104C700082210348FFF7EEFDDEE700BFF4080020C5
:104C80007CA80008022170B5002301241425154AD0
:104C90008CB0154E04915160104603A91660C2E90C
:104CA000023513619361CDE906330893CDE90A33E8
:104CB000039405940994FFF757F868B9002301A9F4
:104CC0000848CDE90133FFF78DFB18B1B121074842
:104CD000FFF7C0FD0CB070BDAA210448FFF7BAFD74
:104CE000ECE700BF74080020000800407CA8000822
:104CF0000268094B9A4200D0704703F564439A69F1
:104D000082B042F400629A619B6903F400630193EC
:104D1000019B02B0704700BF002C01400368B3F153
:104D2000804F00D07047012103F50433D86900B5E6
:104D30000843D861DB6983B00B40019300221C203B
:104D4000019BFEF7A5F91C2003B05DF804EBFEF70C
:104D5000D5B900BF02680E4B9A4200D0704730B5FB
:104D6000C025002403F50233DA6987B042F004025B
:104D7000DA61DB6902A903F0040301930548029597
:104D8000019BCDE90344FEF701FB07B030BD00BF36
:104D900000080040000C0140002103E00B4B5B5871
:104DA000435004310A480B4B42189A42F6D30A4A40
:104DB00002E0002342F8043B084B9A42F9D3FFF784
:104DC0007DFE00F00FF8FFF7C5FD704728A9000829
:104DD00000000020B0020020B002002038090020AE
:104DE000FEE7000070B500250C4E0D4CA41BA4106E
:104DF000A54209D100F052FC00250A4E0A4CA41B22
:104E0000A410A54205D170BD56F82530984701354C
:104E1000EEE756F8253098470135F2E720A900085B
:104E200020A9000820A9000824A90008024B014677
:104E3000186800F06BB800BF4C020020024B01461E
:104E4000186800F017B800BF4C02002010B5431ED0
:104E50000A44914200D110BD11F8014B03F8014FF3
:104E6000F7E703460244934200D1704703F8011B61
:104E7000F9E7000038B50546002943D051F8043C55
:104E80000C1F002BB8BFE41800F0CAF81E4A1368C4
:104E9000104633B9636014602846BDE8384000F01E
:104EA000C0B8A3420BD921686218934201BF1A68A7
:104EB0005B685218226063600460EDE713465A682D
:104EC0000AB1A242FAD919685818A0420BD1206839
:104ED0000144581882421960DED1106852680144BA
:104EE00019605A60D8E702D90C232B60D4E72068F8
:104EF00021188A4201BF1168526809182160626056
:104F00005C60C9E738BD00BF7003002070B5CD1CE0
:104F100025F0030508350C2D38BF0C25002D06465D
:104F200001DBA94203D90C233360002070BD00F0DF
:104F300077F8214A1468214691B9204C23681BB99F
:104F4000304600F03DF820602946304600F038F841
:104F5000431C24D10C233046336000F062F8E4E7B0
:104F60000B685B1B18D40B2B0FD90B60CC18CD50E2
:104F7000304600F056F804F10B00231D20F0070026
:104F8000C31AD3D05A42E250D0E74B688C4216BFC6
:104F9000636013600C46EBE70C464968CCE7C41C21
:104FA00024F00304A04205D0211A304600F008F88E
:104FB0000130CFD02560DBE77003002074030020B0
:104FC00038B50023054C05460846236000F058FB21
:104FD000431C02D1236803B12B6038BD3409002083
:104FE0000EB46FF0004100B59CB01DAB029006906E
:104FF000079104910848094953F8042B059100686A
:1050000002A9019300F068F80022029B1A701CB0FC
:105010005DF804EB03B070474C0200200802FFFF6C
:10502000704770472DE9F0478E6882469E420C46D5
:105030009046994637D88A8912F4906F31D002236E
:10504000256809696F1A656905EB450595FBF3F558
:1050500009F101033B449D4238BF1D46530530D53D
:105060002946FFF753FF064650B90C234FF0FF3097
:10507000CAF80030A38943F04003A381BDE8F0875C
:105080003A462169FFF7E2FEA38923F4906343F0D7
:105090008003A38126613E4426604E466561ED1B78
:1050A000A5604E4500D94E4632464146206800F084
:1050B0009FFAA36800209B1BA36023681E44266000
:1050C000DCE72A4600F0ADFA06460028E2D1216965
:1050D0005046FFF7CFFEC8E72DE9F04F9DB0039390
:1050E0008B8980461D060C4616460FD50B696BB999
:1050F0004021FFF70BFF2060206128B90C23C8F87E
:1051000000304FF0FF30C7E0402363610023099374
:1051100020238DF8293030234FF0010B8DF82A30F1
:1051200037463D4615F8013B0BB1252B3ED1B7EB79
:10513000060A0BD05346324621464046FFF772FF1F
:10514000013000F0A480099B534409933B78002B65
:1051500000F09D8000234FF0FF32CDE9052304933A
:1051600007938DF853301A932F46052217F8011B29
:105170004F4800F02FFA049BD0B9D90644BF202233
:105180008DF853201A0744BF2B228DF853202A781C
:105190002A2A15D02F4600200A25079A394611F8E9
:1051A000013B303B092B4DD9B8B10FE02F46B8E792
:1051B0003F4A3D46801A0BFA00F018430490D3E7AB
:1051C000039A111D12680391002A01DB079204E083
:1051D000524243F00203079204933B782E2B0CD1EA
:1051E0007B782A2B33D1039B02371A1D1B6803924D
:1051F000002BB8BF4FF0FF3305932E4D03223978B3
:10520000284600F0E7F938B14023401B03FA00F0CC
:10521000049B0137034304933978062226487E1CF9
:105220008DF8281000F0D6F9002838D0234B13BB96
:10523000039B073323F0070308330393099B4B4475
:1052400009936DE705FB023201200F46A6E7002314
:105250000A25194601370593384610F8012B303AD4
:10526000092A03D9002BC8D00591C6E705FB012107
:1052700001230746F0E703AB00932246104B04A935
:105280004046AFF30080B0F1FF3F8146D6D1A389FD
:105290005B063FF536AF09981DB0BDE8F08F03AB54
:1052A00000932246064B04A9404600F081F8EAE745
:1052B000ECA80008F2A80008F6A80008000000000A
:1052C000255000082DE9F04791461F468A680B6972
:1052D00006469342B8BF1346C9F8003091F8432000
:1052E0000C46DDF8208012B10133C9F80030236884
:1052F000990642BFD9F800300233C9F8003025685A
:1053000015F0060507D104F1190AE368D9F8002061
:105310009B1AAB4229DC94F843302268003318BF53
:10532000012392062ED404F1430239463046C04789
:10533000013021D02368E56803F00603042B18BF71
:105340000025D9F800204FF0000908BFAD1AA36866
:10535000226908BF25EAE5759342C4BF9B1AED1880
:105360001A344D451AD1002008E00123524639462F
:105370003046C047013003D14FF0FF30BDE8F08721
:105380000135C2E73020E11881F843005A1C94F837
:1053900045102244023382F84310C4E70123224619
:1053A00039463046C0470130E6D009F10109D8E757
:1053B0002DE9F04301F1430C0C46097E85B06E29BE
:1053C0001746064698460C9A00F0B38022D8632907
:1053D00036D00AD8002900F0B980582900F083801F
:1053E00004F1420584F8421032E0642901D06929B1
:1053F000F6D120681368050603F104012AD51B685D
:105400001160002B03DA2D225B4284F843206F48A1
:105410000A2239E0732900F09D8008D86F2920D036
:105420007029DDD1236843F02003236003E0752950
:1054300017D07829D4D17823654884F8453055E0D1
:10544000136804F14205191D1B68116084F842308D
:1054500001238CE01B6810F0400F116018BF1BB2D5
:10546000CFE713682568181D1060280601D51B6852
:1054700002E06806FBD51B886F2914BF0A220822A8
:105480005248002184F843106568002DA560C0F2E1
:105490009580216821F004012160002B3DD1002D71
:1054A00040F08E806546082A0BD12368DB0708D5BB
:1054B000236962689A42DEBF302305F8013C05F19A
:1054C000FF35ACEB05032361CDF800803B4603AA12
:1054D00021463046FFF7F6FE01304DD14FF0FF3048
:1054E00005B0BDE8F083394884F845101368216899
:1054F0001D1D1B6815600A060BD5CA0744BF41F085
:10550000200121601BB9226822F0200222601022B3
:10551000B7E74D0648BF9BB2EFE76546B3FBF2F134
:1055200002FB1133C35C05F8013D0B460029F5D1A0
:10553000B9E713682568181D6169106028061B68A3
:1055400001D5196002E06A06FBD519800023654683
:105550002361B9E71368191D11601D686268002195
:10556000284600F037F808B1401B6060636823618B
:10557000002384F84330A7E723692A46394630469A
:10558000C0470130AAD023689B0713D4E068039B6F
:105590009842B8BF1846A3E701234A463946304629
:1055A000C04701309AD00135E368039A9B1AAB4299
:1055B000F2DCEBE7002504F11909F5E7002BACD18B
:1055C000037804F1420584F842306CE7FDA8000836
:1055D0000EA9000810B5C9B202449042034601D199
:1055E000002303E01C7801308C42F6D1184610BD30
:1055F000884210B501EB020307D8421E99420AD037
:1056000011F8014B02F8014FF8E78342F5D98118F0
:10561000D21AD34200D110BD13F8014D01F8014D4B
:10562000F7E7F8B5074614460E4621B9BDE8F8403D
:105630001146FFF76BBC22B9FFF71CFC2546284634
:10564000F8BD00F014F8A0420FD221463846FFF70B
:105650005DFC05460028F2D031462246FFF7F6FBF6
:1056600031463846FFF706FCE9E73546E7E751F8EB
:10567000043C181F002BBCBF0B58C018704700001B
:10568000044A05491368002B08BF0B4618441060F4
:10569000184670477803002038090020F8B500BF8D
:1056A000F8BC08BC9E467047F8B500BFF8BC08BC03
:0456B0009E4670475B
:1056B400848800080508207F045700081B1C207FED
:1056C400E47F00080B0D207FF094000811112E5A7E
:1056D400C48A00081B242E3924910008141C2E3976
:1056E400389A00080F152E39609C00080B0E2E39CD
:1056F400749D000814242E3930A2000812242E3977
:105704000E00000000000000000000000000000087
:105714000000000000000000000000000000000085
:105724000000000000000000000000000000000075
:105734000000000000000000000000000000000065
:105744000000000000000000000000000000000055
:105754000000000000000000000000000000000045
:105764000000000000000000000000000005000030
:10577400000000000000FC7F0E00FC7F0F00FC7F97
:10578400070000000000000000000000000000000E
:105794000000000000000000000000000000000005
:1057A40000000000000000000000000000000000F5
:1057B40000000000000000000000000000000000E5
:1057C40000000000000000000000000000000000D5
:1057D40000000000000000000000090000000000BC
:1057E400000000FC010000FC0100000000000000BB
:1057F40000000000000000FC010000FC01000000AB
:105804000000000000000000000000000000000094
:105814000000000000000000000000000000000084
:105824000000000000000000000000000000000074
:105834000000000000000000000000000000000064
:1058440000000000000000110000000000600000E3
:105854008061000080610C0080E10F0080FD0F007A
:10586400807F0000F86F0000FC610C008CE10F00E9
:1058740080FD0F00807F0000F86F0000FC610000D5
:105884008C61000080210000800100000000000005
:105894000000000000000000000000000000000004
:1058A40000000000000000000000000000000000F4
:1058B40000000000110000000000830100C0C703C5
:1058C40000E08F0300700C0700300C0600180C0673
:1058D4000018040600FFFF7F00FEFF3F00180606C5
:1058E4000018060300180603003886030070FE0142
:1058F4000070FC00000078000000000000000000C0
:105904000000000000000000000000000000000093
:105914000000000000000000000000000000000083
:10592400001500000000E0000000F0010000F80392
:1059340000001C0304000C030E008C830F00FCC148
:105944000300F8F00000707C0000001E00008007D7
:105954000300E0830700F0C00F003CC00C001C6093
:105964000C0008600C000060060000E0070000C0A6
:10597400030000800100000000000000000000009F
:1059840000000000000000000000000000001600FD
:1059940000000000E0030000F0070000F8070070BA
:1059A4001C0E00F80E0C00F80F0C00DC070C008C29
:1059B400070C000C0F0C000C1F06008C1F0600CCFB
:1059C400390700F8710300F8F0030070E0010000EB
:1059D400E0010000F80300003C070000180E00007E
:1059E400000E00000007000000000000000000009E
:1059F400000000000000000000000004000000009F
:105A040000000000FC010000FC0100000000000098
:105A14000000000000000000000000000000000082
:105A24000000000000000000000000000000000072
:105A34000000000000000000000000000000000062
:105A44000000000000000000000000000000000052
:105A54000000000000000000000000000000000042
:105A640000000000000000000B0000000000000027
:105A74000000FC030000FF1F00C0FF3F00E003FC28
:105A840000F000E0013800C0013C0080031C0080ED
:105A940003080000000000000000000000000000F7
:105AA40000000000000000000000000000000000F2
:105AB40000000000000000000000000000000000E2
:105AC40000000000000000000000000000000000D2
