:020000040800F2
:100000000050002019340008E5300008E9300008ED
:10001000ED300008F1300008F53000080000000065
:10002000000000000000000000000000F93000089F
:10003000FD30000800000000013100080531000813
:10004000613400086134000861340008613400083C
:10005000613400086134000861340008613400082C
:10006000613400086134000861340008153100086B
:10007000613400086134000861340008613400080C
:1000800061340008613400086134000861340008FC
:10009000613400086134000861340008213100082F
:1000A00061340008613400086134000861340008DC
:1000B0002931000861340008613400086134000807
:1000C00061340008613400086134000861340008BC
:1000D00061340008613400086134000861340008AC
:1000E0003531000861340008613400080000000068
:1000F0000000000000000000000000000000000000
:0C01000000000000000000005FF808F1A3
:10010C0010B5054C237833B9044B13B10448AFF345
:10011C0000800123237010BD50020020000000005D
:10012C000C3D000808B5034B1BB103490348AFF362
:10013C00008008BD00000000540200200C3D0008A7
:10014C0008B500F069F900F02FF901F00DF901F094
:10015C009BF800F0BFFB00F0E3F8042000F014F96A
:10016C000022044B9A7318605A731A739A605A607F
:10017C0008BD00BFB00200200548064A417B037B46
:10018C0003EB810352F8233003B11847704700BFCB
:10019C00B002002000000020F0B585B00446012517
:1001AC0000F008FD02230021CDE90135009308463B
:1001BC004023802200F0BEFD23683E4A5E6892E830
:1001CC00030037681E7800F015FF07213A460846F1
:1001DC0000F090FF384B93E8030000F00BFF324621
:1001EC003649374803F02EFA354A1721502000F0D3
:1001FC0081FF23685B689A7932B1012A2AD005B055
:10020C00BDE8F04000F062B91B23032619464122D9
:10021C00CDE901550620009600F08CFD01F0BAF8EE
:10022C00054602683346C2F3071200921E21412292
:10023C00062000F0C9FE6A683346C2F3071200922A
:10024C0027214122062000F0BFFE23685B689A79C3
:10025C00012AD4D103241B23CDE9012219464622BD
:10026C000094062000F066FD01F094F80546026843
:10027C002346C2F3071200921E214122082000F0EF
:10028C00A3FE6A682346C2F307120092272141227B
:10029C00082000F099FEAA682346C2F307120092C8
:1002AC0030214122082000F08FFE05B0BDE8F0405F
:1002BC0000F00CB9343D00086C3D00080C8D0008B2
:1002CC00C0020020704700BF704700BF704700BFDE
:1002DC00704700BF704700BF704700BF704700BF3A
:1002EC00704700BF704700BF704700BF704700BF2A
:1002FC00704700BF704700BF704700BF704700BF1A
:10030C00704700BF704700BF704700BF704700BF09
:10031C00704700BF704700BF704700BF704700BFF9
:10032C002DE9F04383B000F001FF0026144F009636
:10033C003860ADF804604FF00108DFF8489000E039
:10034C002646102003F0ACF8741CE4B2054690B1BC
:10035C000470467080F80880304600F01FF8C5F82D
:10036C000CD068602946386800F0FAFE102CE7D1F2
:10037C0003B0BDE8F0832121484602F0C7FDF1E748
:10038C00E0020020148D000808B5034B01461868E4
:10039C0000F0D6FE006808BDE0020020014B53F8C7
:1003AC00200070476000002010B5064C02F0A4FF3E
:1003BC002046182102F092F914232268E360D362DC
:1003CC0010BD00BF6C070020114A08B51068114B16
:1003DC00426A1968891A00290ED0C06A1A604FEA5D
:1003EC0050000ADD8142ACBF0020012000F058F81B
:1003FC00BDE8084000F018B808BD49428842CCBF9F
:10040C000020012000F04CF8BDE8084000F00CB8CA
:10041C006C0700206C02002008B500F087FE014B31
:10042C00186008BD7002002038B5074C05462068DE
:10043C0000F094FE0A2800D938BD29462068BDE892
:10044C00384000F08DBE00BF7002002038B5054664
:10045C00042003F025F8044620B103230571037032
:10046C00204638BD4021024802F050FDF8E700BF9D
:10047C00108E000870B5064604200D4603F010F8E7
:10048C00044628B10123067145710370204670BDE6
:10049C005221024802F03AFDF8E700BF108E000826
:1004AC0070B5064604200D4602F0FAFF044628B14A
:1004BC000223067185600370204670BD65210248D9
:1004CC0002F024FDF8E700BF108E000808232DE988
:1004DC00F04F4FF0000983B0DFF884815F4CDFF8F8
:1004EC0084B1019398F80130019A5FFA89F593422F
:1004FC0080F2A68098F80330B3EBC90FC0F2A98044
:10050C0000224FF48041204601F074FC072645F090
:10051C00B00500224FF40051204601F06BFC45FA67
:10052C0006F212F0010218BF01224FF400412046DE
:10053C0001F060FC013E204601224FF4005101F015
:10054C0059FC701CE5D100224FF48041204698F8EC
:10055C000050072601F04EFC2F0947F0100700222F
:10056C004FF40051204601F045FC47FA06F212F018
:10057C00010218BF01224FF40041204601F03AFC61
:10058C00013E4FF400510122204601F033FC711C56
:10059C00E5D100224FF48041204601F02BFC0726C8
:1005AC0005F00F0500224FF40051204601F022FC0B
:1005BC0045FA06F212F0010218BF01224FF4004175
:1005CC00204601F017FC013E01224FF40051204659
:1005DC0001F010FC721CE5D198F8007098F802300C
:1005EC00BB422DD34FEAC91ADBF8003001223B4441
:1005FC004FF48041204613F80A60072501F0FAFBFE
:10060C0000224FF40051204601F0F4FB46FA05F2AB
:10061C0012F0010218BF01224FF40041204601F0F4
:10062C00E9FB013D01224FF40051204601F0E2FBB1
:10063C006B1CE5D1013798F80230FFB2BB42D3D224
:10064C00019B09F101090833B9F1100F01937FF4F3
:10065C0049AF03B0BDE8F04F00F080BA000C014088
:10066C00E4020020E806002038B500224FF4804157
:10067C00974801F0BFFB0724954D00224FF4005121
:10068C00284601F0B7FBA022224112F0010218BF4C
:10069C0001224FF40041284601F0ACFB013C012241
:1006AC004FF40051284601F0A5FB631CE5D1002254
:1006BC004FF48041864801F09DFB0724844D0022B5
:1006CC004FF40051284601F095FBAE22224112F066
:1006DC00010218BF01224FF40041284601F08AFBA9
:1006EC00013C284601224FF4005101F083FB601CB1
:1006FC00E5D100224FF48041754801F07BFB0724C3
:10070C00734D00224FF40051284601F073FBC822B0
:10071C00224112F0010218BF01224FF40041284679
:10072C0001F068FB013C4FF400510122284601F016
:10073C0061FB611CE5D100224FF48041644801F05B
:10074C0059FB0724624D00224FF40051284601F05A
:10075C0051FBA222224112F0010218BF01224FF4D8
:10076C000041284601F046FB013C01224FF40051A8
:10077C00284601F03FFB621CE5D100224FF480417A
:10078C00534801F037FB0724514D00224FF4005120
:10079C00284601F02FFB2F22224112F0010218BF34
:1007AC0001224FF40041284601F024FB013C0122B8
:1007BC004FF40051284601F01DFB631CE5D10022CB
:1007CC004FF48041424801F015FB0724404D0022B4
:1007DC004FF40051284601F00DFB2422224112F067
:1007EC00010218BF01224FF40041284601F002FB20
:1007FC00013C284601224FF4005101F0FBFA601C29
:10080C00E5D100224FF48041314801F0F3FA07247E
:10081C002F4D00224FF40051284601F0EBFA8122B3
:10082C00224112F0010218BF01224FF40041284668
:10083C0001F0E0FA013C4FF400510122284601F08E
:10084C00D9FA611CE5D100224FF48041204801F017
:10085C00D1FA07241E4D00224FF40051284601F016
:10086C00C9FA2322224112F0010218BF01224FF4CF
:10087C000041284601F0BEFA013C01224FF4005120
:10088C00284601F0B7FA621CE5D100224FF48041F2
:10089C000F4801F0AFFA07240D4D00224FF4005120
:1008AC00284601F0A7FAAF22224112F0010218BF2C
:1008BC0001224FF40041284601F09CFA013C012230
:1008CC004FF40051284601F095FA631CE5D138BD70
:1008DC00000C0140F8B501224FF480518A4801F018
:1008EC0089FA00224FF48071884801F083FA0120C4
:1008FC0000F09AFD01224FF48071844801F07AFADD
:10090C0000224FF48051804801F074FA012000F06D
:10091C008BFDFFF7A9FE00224FF480417A4801F0CD
:10092C0069FA0724784D00224FF40051284601F053
:10093C0061FAAF23234113F0010218BF01224FF4D7
:10094C000041284601F056FA013C01224FF40051B7
:10095C00284601F04FFA661CE5D14FF47A7000F08E
:10096C0063FD00224FF48041674801F043FA0724ED
:10097C00654D00224FF40051284601F03BFAA023AC
:10098C00234113F0010218BF01224FF40041284605
:10099C0001F030FA013C284601224FF4005101F0DD
:1009AC0029FA601CE5D100224FF48041564801F031
:1009BC0021FA0724544D00224FF40051284601F02F
:1009CC0019FA4023234113F0010218BF01224FF4FE
:1009DC000041284601F00EFA013C4FF4005101226F
:1009EC00284601F007FA611CE5D10027464D00228C
:1009FC004FF480412846072401F0FCF967F04F06BC
:100A0C00F6B200224FF40051284601F0F3F946FAF1
:100A1C0004F313F0010218BF01224FF400412846E1
:100A2C0001F0E8F9013C01224FF40051284601F095
:100A3C00E1F9621CE5D100224FF48041284601F017
:100A4C00D9F9072400224FF40051284601F0D2F9BD
:100A5C001023234113F0010218BF01224FF400416F
:100A6C00284601F0C7F9013C01224FF400512846F9
:100A7C0001F0C0F9631CE5D100224FF480412846F7
:100A8C0001F0B8F9082400224FF40051284601F077
:100A9C00B1F900224FF40041284601F0ABF90122D4
:100AAC004FF40051284601F0A5F9631E13F0FF0422
:100ABC00E9D1802601224FF48041284601F09AF9B1
:100ACC00082400224FF40051284601F093F900222B
:100ADC004FF40041284601F08DF901224FF40051EA
:100AEC00284601F087F9631E13F0FF04E9D1013E9B
:100AFC00E0D10137102F7FF47AAF054800F07AF877
:100B0C00BDE8F84000F032B8000C0140000801408C
:100B1C00E802002010F0800F18BF7F2012F0800F29
:100B2C0018BF7F223F2928BF3F213F2B28BF3F23DF
:100B3C0030B4094C2578854288BF2070A07890424B
:100B4C0038BFA27062788A42E27888BF61709A429C
:100B5C0038BFE37030BC7047E402002043F67F726C
:100B6C00014B1A60704700BFE402002008B50F4B20
:100B7C004FF480621868002102F0A5FC0C4B1A7827
:100B8C000AB100221A709A787E2A9CBF7F229A7032
:100B9C005A780AB100225A70DA783E2A9CBF3F225A
:100BAC00DA70BDE80840FFF791BC00BFE8060020F2
:100BBC00E402002008B50D4B4FF480621868002148
:100BCC0002F081FC0A4B1A780AB100221A709A784A
:100BDC007E2A9CBF7F229A705A780AB100225A70E2
:100BEC00DA783E2A9CBF3F22DA7008BDE806002066
:100BFC00E4020020014B1860704700BFE80600209B
:100C0C00030615D43F2913D870B4012401F007054D
:100C1C00CB080B4EAC4000EBC31364B2F55642B993
:100C2C0025EA0404F454024670BC0B46FFF772BF6D
:100C3C0070472C43F454024670BC0B46FFF76ABF56
:100C4C00E80200202DE9F04F87B002EB000A88463D
:100C5C009DF840105045039004920593029134DAAC
:100C6C0003EB0806DFF8C8900FFA88F305B201937E
:100C7C00B04526DA2B06EFB250D4DDE901434FF034
:100C8C00010B002B46D103E0013424B2A64218DD3F
:100C9C00E3B23F2BF8D8D80807EBC01019F800C006
:100CAC0003F007020BFA02F22CEA020C013409F8E9
:100CBC0000C019463A46384624B2FFF72BFFA6422D
:100CCC00E6DC01352DB25545D2DB4146059B049A35
:100CDC000398013B013A43440244DBB2D2B207B061
:100CEC00BDE8F04FFFF716BF4FEAD30C07EBCC1C57
:100CFC0019F80C2003F007000BFA00F0104309F868
:100D0C000C0019463A463846FFF704FF013424B26A
:100D1C00A642D6DDE3B23F2BF8D8E5E7019B0133C1
:100D2C001BB2B342FBDB01352DB25545A0DBCCE742
:100D3C00E80200202DE9F04F89B09DF848409DF85D
:100D4C004C70002C08BF01240693013B0B44002F70
:100D5C00029102EB000B9DF85010DBB208BF01278B
:100D6C0058450490019207940593039153DA9A46DF
:100D7C00DFF8509206B2CDF800B034065FFA86F870
:100D8C003FD4DDE90245002D40F0B0804FF0010B5F
:100D9C000AE0AAEB0503DBB23F2B1FD901352DB2BC
:100DAC000134AF42E4B231DD3F2CF2D8E00808EB5D
:100DBC00C01019F800C004F007030BFA03F32CEA77
:100DCC00030C09F800C02346424621464046FFF773
:100DDC00A1FEAAEB0503DBB23F2BDFD8D80808EB4A
:100DEC00C01019F800C003F007020BFA02F22CEA4B
:100DFC00020C09F800C0194642464046FFF78AFE2D
:100E0C00CCE7002301331BB2BB42FBDB0136009B5A
:100E1C0036B29E42B1DB019B029A03F1FF39049B6F
:100E2C0015B29944069B5FFA89F913449A420193CF
:100E3C0053DACDF80090DFF88CA1DDF81C9004E0BB
:100E4C000135019B2DB29D4245DA0123EFB207F02B
:100E5C00070403FA04F464B24FEAD7083F2F6FEA91
:100E6C0004064FEAC818EBD8039B002B7AD11C461A
:100E7C000695049D5FFA84FB05EB0B02D2B21006BB
:100E8C0002EB08010AD41AF801C03B4606EA0C0C26
:100E9C000AF801C010463946FFF73CFE009BA3EB55
:100EAC000B0B5FFA8BF213060BD402EB080C1AF83F
:100EBC000C103B4631400AF80C1010463946FFF72F
:100ECC0029FE013424B2A145D4DC069D0135019BD9
:100EDC002DB29D42B9DBDDF800904A46059B029984
:100EEC00049809B0BDE8F04FFFF714BE00254FF091
:100EFC00010B0AE0AAEB0503DBB23F2B1FD901352E
:100F0C002DB20134AF42E4B280DD3F2CF2D84FEA6F
:100F1C00D40C08EBCC1C19F80C3004F007000BFABD
:100F2C0000F0184309F80C0023464246214640467F
:100F3C00FFF7F0FDAAEB0503DBB23F2BDFD84FEA3E
:100F4C00D30C08EBCC1C19F80C2003F007000BFA9F
:100F5C0000F0104309F80C00194642464046FFF7D2
:100F6C00D9FDCCE700260695049D5FFA86FB05EBC0
:100F7C000B02D2B2100602EB08010AD41AF801C017
:100F8C003B4644EA0C0C0AF801C010463946FFF700
:100F9C00C1FD009BA3EB0B0B5FFA8BF213060BD47A
:100FAC0002EB080C1AF80C10104621430AF80C102E
:100FBC003B463946FFF7AEFD013636B2B145D4DCBF
:100FCC00069D83E7E802002030B4022B9DF8084010
:100FDC0001D830BC7047012504FB02F2044C029589
:100FEC00A4FB024230BCC2F30712FFF72BBE00BFBA
:100FFC00D34D621082B06B4683E80300034A93E83A
:10100C00030082E8030002B0704700BFEC0600202A
:10101C002DE9F04F364E89B0B479944265D8F37906
:10102C0093422CBF13462E2372791B1BD5085207F3
:10103C003279029518BF013502FB05F202F101026B
:10104C00D2B203FB02F3326818BF0295D45C13448E
:10105C000394002C43D06A1ED2B20593531C019109
:10106C00079006930090029B5BB3059A069B9246F1
:10107C001344019D9DF800900493019B1AF8018F75
:10108C00A5EB030B009BEFB27F2B28DC00242B1964
:10109C0039193F2B04EB0B0048FA04F2C9B21EDCE1
:1010AC007379984206DA12F0010218BF0122484601
:1010BC00FFF7A6FD0134082CE9D1049B08359A45AD
:1010CC00DBD1009B079A0133009302999B1A059A76
:1010DC00DBB20A440592039A9A42C4D801E0002379
:1010EC000393039809B0BDE8F08F2E239CE700BF53
:1010FC00EC0600200C4B5B79C3F13F03994212DCE8
:10110C0070B5154612780E4604465AB12046314643
:10111C00FFF77EFF15F8012F0444013404F0FF049F
:10112C00002AF3D170BD7047EC06002008B50C20E6
:10113C0002F0B6F90022C0E90022826008BD00BFAF
:10114C00D0E900308B4206D931B1002301339942EA
:10115C004068FBD170470020704700BF00687047A3
:10116C0038B504460C200D4602F09AF90022A3680B
:10117C00C0E90052826053B15A68C0E901235A6831
:10118C00906058602368A0600133236038BDC0E9CB
:10119C0001006060F6E700BF20280AD0B0F5005FC0
:1011AC0003D10222054B1A7070470022034B1A70B0
:1011BC0070470122014B1A70704700BF7402002067
:1011CC002DE9F84FDFF8BCB0BBF80C3073B3002539
:1011DC004FF00309A8464FF0020A09E0E379834275
:1011EC0026D00135BBF80C30ADB2AB4226731DD9FD
:1011FC000BEB85035C6800F011F9A18807462068A9
:10120C0000F0F2FD637B0646002BE7D0012B28D0C3
:10121C00022B33D1E379A2688342A7EB020711D0EA
:10122C00238ABB4221D384F80D80DAE7BDE8F88F1E
:10123C000123A7606373A268E389BF1A9F42D0D9C8
:10124C0084F80DA0638ABB42CBD20021A079FFF7B2
:10125C0011F9FFF7E9F884F80D90E379B342E2D184
:10126C00BFE7E3798342DED1E5E70121A079FFF7FF
:10127C0001F9FFF7D9F884F80D90EEE7032BECD0C9
:10128C00AFE700BF74020020F8B51E4DAC89012CED
:10129C0037D8142002F004F9D8B100224FF40051D1
:1012AC00022740F2DC56631C9BB28180C2714273F0
:1012BC0001F18041144A05EB840401F57041BB42F5
:1012CC00AB816060877146820160C0F80E2018D037
:1012DC000124142002F0E4F898B12021012200230B
:1012EC0040F2DC56818082710849074AC37143730E
:1012FC00631C05EB840446820160C0F80E20AB81B0
:10130C006060F8BD7402002005006400000C014010
:10131C00134B14489A7E10B50132A0FB0210400802
:10132C0000EB4000101A821C03EB820253F82040A1
:10133C00516882B0611A01910199C0B2987681EA24
:10134C00E173A3EBE173042B01DC02B010BD54601C
:10135C00FFF77CF802B0BDE81040FFF765B800BF9E
:10136C0084020020ABAAAAAA10B5002401F030FD1B
:10137C0001F09AFC054B03225C761C769C76194690
:10138C00BDE81040024800F021B900BF84020020E3
:10139C00F806002000487047840200204FF47A734E
:1013AC0070B50D4D0D4A29781268B3FBF1F3064662
:1013BC00B2FBF3F000F0ECFA08B90F2E01D90120C2
:1013CC0070BD0446024631464FF0FF3000F09EFAE5
:1013DC006E60204670BD00BFE0010020E8010020D7
:1013EC00074A08B51368032043F01003136000F09C
:1013FC007BFA0020FFF7D2FF01F01EFE002008BD93
:10140C0000200240034A044B11681B780B44136004
:10141C00704700BFF4060020E0010020014B186863
:10142C00704700BFF406002038B50446FFF7F6FFFE
:10143C00631C054602D0044B1B781C44FFF7EEFFDF
:10144C00401BA042FAD338BDE0010020002871D027
:10145C00836A70B50446002B62D023689A68D00763
:10146C0049D4A26AD20640D4D4E90205A26A6168C2
:10147C0022F48852E66922F0020242F00202314361
:10148C00B0F5807FA26241EA450261695DD0012816
:10149C0000F08780012900F093805868494920F4B6
:1014AC006940586000209D68294011439960D96AB1
:1014BC00454D21F470010143D9629B681D40AA423D
:1014CC003AD00120A36A23F0120343F01003A36265
:1014DC00E36A0343E36270BDA36A43F01003A362A3
:1014EC00E36A43F00103E362A36AA36A012043F0B9
:1014FC001003A36270BD9A6822F001029A60FFF794
:10150C008DFF054604E0FFF789FF401B0228E3D856
:10151C0023689A68D107F6D4A26AD206E5D4A3E769
:10152C00C36280F8243001F00DFC23689A68D00760
:10153C00E1D496E7012070470020E062A36A23F013
:10154C00030343F00103A36270BD01290ED0586858
:10155C001C4920F4694040F4807058609868014040
:10156C0011439960216901390805A0E70646F5B9D0
:10157C00A1694D1E46EA453545F400665D68114982
:10158C0025F4694535435D609D68B0F5807F01EABF
:10159C00050141EA02019960E4D00128E2D0002063
:1015AC0085E7012908BF4FF48076E0D0CFE7A16A28
:1015BC0041F02001A162E16A41F00101E162DDE745
:1015CC000026D4E7FDF7E1FFFE0E1FFF2DE9F043E7
:1015DC00554B056883B09D427ED003F580639D42D8
:1015EC007AD090F82430012B00F08D8000239046A7
:1015FC0001220193AB680F46D907044680F82420DA
:10160C0021D44A4B4A491B68AA68A1FB031342F038
:10161C0001029B0CAA600193019B2BB1019B013B26
:10162C000193019B002BF9D1FFF7F8FE814605E0F1
:10163C00FFF7F4FEA0EB0900022857D82568AE6826
:10164C0016F00106F4D0A36A3A4A23F4706323F02F
:10165C00010343F480739542A36258D0A36A23F428
:10166C008013A3626B685A0505D5A36A23F4405313
:10167C0043F48053A36200266FF00202A36A206A2F
:10168C0013F4805318BFE36A2B4918BF23F00603E9
:10169C00E3622A4B84F82460C0E90A1328494346C4
:1016AC0001632A60A9683A4641F48071A96005F18A
:1016BC004C0100F0CFF9304623689A6802F460229E
:1016CC00B2F5602F9A680CBF42F4A00242F480126B
:1016DC009A6003B0BDE8F083134B5B6813F4702F72
:1016EC003FF47FAF012003B0BDE8F0830120A36A73
:1016FC0084F8246043F01003A362E36A0343E362BB
:10170C0003B0BDE8F083022003B0BDE8F083064BC4
:10171C005A6812F4702FA1D0A26A42F48012A2620D
:10172C005B685B05A7D5A0E700240140E801002019
:10173C0083DE1B430028014055170008A917000839
:10174C00B9170008704700BF436A9A6A12F0500F2D
:10175C0002D01B6A1B6B18479A6A196842F4007214
:10176C0010B59A628A6802F46022B2F5602F03D039
:10177C001846FFF7E7FF10BDDA68002AF8D19A6A1D
:10178C0022F480729A629A6AD204F1D49A6A42F074
:10179C0001029A62ECE700BF704700BF08B5406ACF
:1017AC00FFF7FAFF08BD00BF704700BF08B5436ADA
:1017BC009A6A184642F040029A62DA6A42F00402CF
:1017CC00DA62FFF7F1FF08BD002270B490F8243004
:1017DC0083B0012B01925FD001234D680468062D64
:1017EC0080F824300A6805EB85034FF01F0625D9D5
:1017FC000C2D47D8233B256B9E4025EA060502FAA3
:10180C0003F32B432363092A8B684FF0070602EB83
:10181C00420123D91E39E5688E408B4025EA06012A
:10182C000B43E360A2F11003012B22D90023002209
:10183C0080F82420184603B070BC7047053B656BDC
:10184C009E4025EA060502FA03F32B43092A63633B
:10185C004FF007068B6802EB4201DBD825698E40FE
:10186C008B4025EA06010B432361A2F11003012BE7
:10187C00DCD81A4B9C4214D0826A012342F020021D
:10188C008262D4E7413BE56A9E4025EA060502FAEE
:10189C0003F32B43E362B6E70223184603B070BC94
:1018AC007047A3681B02C1D4A368102A43F4000339
:1018BC00A360BBD10A4B0B4A1B68A2FB03239B0CF6
:1018CC0003EB83035B000193019B002BAED0019BC8
:1018DC00013B0193019B002BF9D1A7E700240140A8
:1018EC00E801002083DE1B434FF6FF01064A00028D
:1018FC00D36800F4E0600B4043F0BF6343F4003363
:10190C000343D360704700BF00ED00E0184B30B4C8
:10191C00DB68C3F30223C3F10705042D03F10404B0
:10192C0028BF0425062C19D94FF0FF34033B9C40EB
:10193C0022EA04044FF0FF32AA4021EA020101FA24
:10194C0003F2224312010028D2B20ADB00F16040FC
:10195C0000F5614080F8002330BC7047002423461A
:10196C00E8E7044B00F00F0003441A7630BC7047D4
:10197C0000ED00E0FCEC00E0012300F01F01034A45
:10198C0040098B4042F82030704700BF00E100E076
:10199C000138B0F1807F0DD230B4F0250022072140
:1019AC00054B064C586084F82350104630BC9A60A6
:1019BC00196070470120704710E000E000ED00E076
:1019CC00044A042813680CBF43F0040323F00403F7
:1019DC001360704710E000E0704700BF08B5FFF7D8
:1019EC00FBFF08BD70B30346F0B4D0E90126002418
:1019FC0001253243DE680068324313491E69134FD8
:101A0C00014432435E69A7FB017132439E69DF6971
:101A1C00324306680909890026F47F563A4326F0BA
:101A2C00300619640A493243D96302602046C3E97F
:101A3C000A44C3E90C449C6383F8204083F821508A
:101A4C00F0BC704701207047F8FFFDBFCDCCCCCC6B
:101A5C0000000240F0B590F82040012C32D0012457
:101A6C0090F8215080F82040A54225D100264FF057
:101A7C00020E046886632668076CD0F83CC0BD4033
:101A8C0026F00106476880F821E02660CCF8045067
:101A9C006360C36A102F0BBFA260A160E160E260BB
:101AAC009BB1236843F00E03236000232268184681
:101ABC0042F001022260F0BD0022022380F82020B7
:101ACC001846F0BD02231846F0BD236823F004032A
:101ADC002360236843F00A032360E6E7042270B412
:101AEC00D0E90F61346803688A4022421D681FD018
:101AFC006A071DD51A68910603D41A6822F00402ED
:101B0C001A603F4A93425CD01432934261D0143233
:101B1C00934268D0143293426BD0143293425DD00E
:101B2C00143293420CBF4FF480034FF0806349E0B2
:101B3C0002228A40224222D0AA0720D51A68910696
:101B4C0006D401211A6822F00A021A6080F82110CA
:101B5C002B4A93422BD01432934242D014329342EC
:101B6C0044D01432934236D01432934244D01432BF
:101B7C0093420CBF4FF400134FF0007318E008228F
:101B8C008A4022421BD02A0719D5012200251C6845
:101B9C0002FA01F124F00E041C60036B7160826385
:101BAC0080F8212080F820504BB170BC18470223DC
:101BBC000021144C826A636080F820103AB970BC22
:101BCC00704704230F49C26A4B60002AF7D070BCDF
:101BDC0010474023F6E74FF40053E9E74FF4802316
:101BEC00F0E72023E4E74FF48063EBE74FF4007356
:101BFC00DEE74FF48043E5E74FF40033D8E700BF4E
:101C0C0008000240000002402DE9F04F4FF00008A0
:101C1C0083B04446DFF8C0C1694EDFF8C0E102E092
:101C2C000134102C78D001230A68A3401A40934247
:101C3C00F6D14D68122D00F09C807ED8022D00F05C
:101C4C00948074D9032D00F08D80112D02D1CB68B6
:101C5C0003F10408FF2A62D882460368A5004FF0FE
:101C6C000F0909FA05FB23EA0B0308FA05F52B43C8
:101C7C00CAF80030D1F804A01AF0805FD0D0514FD0
:101C8C0024F00305BB6905F1804543F00103BB61FA
:101C9C00BB6905F5803503F00103019304F0030BD8
:101CAC00019B4FEA8B0BAB6809FA0BF9604523EAF1
:101CBC0009030FD0704560D0434FB84278D0434FE2
:101CCC00B8420CBF4FF003094FF0040909FA0BFBA3
:101CDC0043EA0B03AB6033681AF4803F14BF134321
:101CEC009343336073681AF4003F14BF1343934358
:101CFC007360B3681AF4801F14BF13439343B3602B
:101D0C00F3681AF4001F04F1010414BF1A4323EA08
:101D1C000202102CF26086D103B0BDE8F08F04F102
:101D2C008045083D4368AD0000F1040A97E7A5B172
:101D3C00012D8FD1D1F80C808CE7254FBD420CD0F2
:101D4C0029D9244FBD4208D007F58037BD4204D0B5
:101D5C00DFF88C904D457FF47DAF8D68A5B94FF0C1
:101D6C00040877E74FF0000874E7CB6803F1080824
:101D7C0070E7CB6803F10C086CE74FF0010909FA26
:101D8C000BFB43EA0B03A5E7012D0CBF0361436179
:101D9C004FF008085EE7DFF84C904D45DDD009F5B3
:101DAC0080394D457FF456AF8D68002DD7D0EBE7C9
:101DBC004FF0020909FA0BFB43EA0B038AE700BF59
:101DCC0000040140001002400010014000140140CA
:101DDC00000021100000311000080140000C0140EF
:101DEC0000002210000011108368194214BF01205A
:101DFC000020704702B9090401617047044A516917
:101E0C00014200D1704708B55061FFF7C5F908BD14
:101E1C00000401402DE9F041036882B0DD0704465F
:101E2C0030D5AB494A6802F00C02042A00F0DA8083
:101E3C004A6802F00C02082A00F0D0806368B3F5FF
:101E4C00803F00F00F81002B00F02781B3F5A02F0D
:101E5C0000F0B5819E4B1A6822F480321A601A6821
:101E6C0022F480221A60FFF7D9FA994D064605E054
:101E7C00FFF7D4FA801B642800F20B812B689A03BD
:101E8C00F6D523689F0728D5914A516811F00C0F9D
:101E9C0000F0B680516801F00C01082900F0AC800C
:101EAC002369002B00F0418101228A4B884D1A6076
:101EBC00FFF7B4FA064605E0FFF7B0FA801B0228DC
:101ECC0000F2E7802B689807F6D52B68626923F03F
:101EDC00F80343EAC2032B6023681A0722D5A369CF
:101EEC00002B00F0988001227B4B794D1A60FFF794
:101EFC0095FA064605E0FFF791FA801B022800F2DE
:101F0C00C8806B6A9B07F6D5744B754A1B68A2FB9D
:101F1C0003235B0A019300BF019B5A1E0192002B05
:101F2C00F9D123685D0739D5694BDA69D00040F1E6
:101F3C00828000256B4B1A68D10540F19980E368CB
:101F4C00012B0FD0002B00F0D180052B604B1A6AAF
:101F5C0000F0FC8022F001021A621A6A22F00402DC
:101F6C001A6204E05A4A136A43F001031362FFF742
:101F7C0055FA574E804641F2883706E0FFF74EFA85
:101F8C00A0EB0800B84200F28480336A9B07F5D5B9
:101F9C0025B14F4AD36923F08053D361E269CAB1AA
:101FAC004B4D696801F00C01082930D0022A4FF022
:101FBC0000014D4A00F0D2801160FFF72FFA2C4639
:101FCC00054604E0FFF72AFA401B022861D8236873
:101FDC009B01F7D4002002B0BDE8F0814A68D00321
:101FEC007FF52CAF3A4A126891037FF54BAF6268CC
:101FFC00002A7FF447AF0AE05268D6033FF550AF92
:10200C00334A1268950721D52269012A1ED0012076
:10201C0002B0BDE8F081304A2D4D1360FFF7FEF998
:10202C00064604E0FFF7FAF9801B022831D86B6AE8
:10203C009F07F7D475E7DA69012542F08052DA611F
:10204C00DB6903F080530093009B73E720496069C0
:10205C000A6822F0F80242EAC0020A601A077FF509
:10206C0061AF3CE71A4A136843F480331360FAE615
:10207C001A681E4642F480721A60FFF7CFF90746C1
:10208C003368DA053FF55BAFFFF7C8F9C01B64286E
:10209C00F6D9032002B0BDE8F08103F1804303F5CB
:1020AC0004331A681D4622F480321A601A6822F42E
:1020BC0080221A60FFF7B2F9064604E0FFF7AEF98A
:1020CC00801B6428E5D82B689B03F7D4D9E600BFA6
:1020DC00001002400000424280044242E80100200D
:1020EC00D34D6210007000406000424203F1804307
:1020FC0003F504331A6A1E4622F001021A621A6AA8
:10210C0041F2883822F004021A62FFF787F9074679
:10211C0004E0FFF783F9C01B4045BAD8336A98072F
:10212C00F7D4002D3FF43AAF33E72B4A2B4D136015
:10213C00FFF774F9064604E0FFF770F9801B0228DC
:10214C00A7D82B689907F7D42368C6E642F0040297
:10215C001A621A6A42F001021A6208E71160FFF76C
:10216C005DF9064604E0FFF759F9801B022890D868
:10217C002B689901F7D4226AB2F5803F05D16B68C0
:10218C00A16823F400330B436B600125134B606A89
:10219C005968024321F4741111480A435A600560CE
:1021AC001C46FFF73BF9054605E0FFF737F9401BE6
:1021BC0002283FF66EAF23689A01F6D50AE703F1C1
:1021CC008043A3F53C331A6842F480221A601A68E3
:1021DC0042F480321A6046E600004242001002408F
:1021EC0060004242634A136803F007038B420BD230
:1021FC00136823F007030B431360136803F0070302
:10220C008B4201D0012070472DE9F041036886B064
:10221C009A0706D5584C8568626822F0F0022A436A
:10222C006260DB0704460E4625D54268524B012AF4
:10223C001B6800F09980022A00F0928098072AD53A
:10224C004D4D41F288386B6823F0030313436B60E8
:10225C00FFF7E4F863680746012B64D0022B06D124
:10226C006CE0FFF7DBF8C01B404500F281806B6827
:10227C0013F00C0FF5D13F4A136803F00703B34278
:10228C000DD9136823F0070333431360136803F06D
:10229C000703B34203D0012006B0BDE8F0812368E8
:1022AC00590706D53449E0684A6822F4E0620243D3
:1022BC004A601A0707D5304A2169536823F46053E2
:1022CC0043EAC103536040F201222C4B06ACADF83B
:1022DC0004200FCB04E90F0027494A6802F00C03D5
:1022EC00082B10D0264B244A264852682649C2F3A4
:1022FC000312825C0020D3400B60FFF74FF80020E4
:10230C0006B0BDE8F081C2F38343234413F8100CEC
:10231C00D30319D41D4B03FB00F3E4E7FFF77EF85E
:10232C00C01B404524D86B6803F00C03042BF5D17B
:10233C00A1E7FFF773F8C01B404519D86B6803F091
:10234C000C03082BF5D196E74A680D4BC2F34042BB
:10235C0003FB00F3224412F8142CB3FBF2F3C2E794
:10236C009D013FF56DAF96E79F033FF569AF92E78F
:10237C00032091E70020024000100240E48C00088A
:10238C0000127A00F48C0008E801002000093D00DE
:10239C00014B1868704700BFE80100202DE9F0419F
:1023AC000446006882B0C5072AD53A4BDA69D100D9
:1023BC003DD5394B00251A68D20546D5354960689C
:1023CC000A6A12F440720FD000F4407393420BD09F
:1023DC00012700260B6A314A23F4407017601660FF
:1023EC000862D80745D460682A4A136A23F44073FC
:1023FC00034313621DB1D36923F08053D36120686A
:10240C00830706D5234AA168536823F440430B4342
:10241C00536010F0100007D000201E4AE16853688A
:10242C0023F480030B43536002B0BDE8F081DA69FA
:10243C00012542F08052DA61DB6903F0805301938D
:10244C00019B154B1A68D205B8D41A681E4642F483
:10245C0080721A60FEF7E2FF07463368DB05ADD4E5
:10246C00FEF7DCFFC01B6428F7D9032002B0BDE8DF
:10247C00F0810E46FEF7D2FF41F288378046336A70
:10248C009A07B0D4FEF7CAFFA0EB0800B842F6D901
:10249C00EBE700BF001002400070004040044242D5
:1024AC00002836D090F83D3070B503F0FF0204469A
:1024BC000BB302232268204E84F83D30B2421368DD
:1024CC00A569E068616826D0B2F1804F18D0A6F5F6
:1024DC009436B24214D006F58066B24210D023F086
:1024EC0080032B431360D06291620123002053615F
:1024FC0084F83D3070BD80F83C2000F049FFD8E7EF
:10250C00A66823F070033343266923F440733343E6
:10251C00E5E701207047A66823F070033343266972
:10252C0023F44073334323F080032B431360D062B6
:10253C00916263691363D8E7002C0140002836D000
:10254C0090F83D3070B503F0FF0204460BB3022344
:10255C002268204E84F83D30B2421368A569E068C9
:10256C00616826D0B2F1804F18D0A6F59436B242ED
:10257C0014D006F58066B24210D023F080032B43B2
:10258C001360D062916201230020536184F83D30C6
:10259C0070BD80F83C2000F0E5FED8E7A66823F07B
:1025AC0070033343266923F440733343E5E701207A
:1025BC007047A66823F070033343266923F44073F5
:1025CC00334323F080032B431360D0629162636921
:1025DC001363D8E7002C014000286AD02DE9F84697
:1025EC0090F83D3004460D4603F0FF02002B52D00C
:1025FC000222236884F83D209A68374E22F00702A5
:10260C009A60B3421A68A769E168606853D0B3F165
:10261C00804F45D0A6F59436B34241D006F580667E
:10262C00B3423DD022F080023A431A60D9629862DC
:10263C0001265E61D3F808C09F69A868A96927F4D0
:10264C0040772A6927F0030740EA01213943EF69F3
:10265C00E868120142EA0722D5F820A0D5F81490B8
:10266C001F6A02436868D5F800E021F47C4140EA17
:10267C00091021F0FC0142EA0A3227F0AA070743AD
:10268C004CEA0E050A439D6000209A611F6284F893
:10269C003D60BDE8F88680F83C2000F095FEA7E789
:1026AC00A66822F070023243266922F4407232434B
:1026BC00B8E701207047A66822F070023243266901
:1026CC0022F44072324322F080023A431A60D962FB
:1026DC00986262691A63ABE7002C01400368C1B1D0
:1026EC0004290DD11A6A22F010021A621A6A42F0F9
:1026FC0010021A621A68002042F001021A60704738
:10270C001A6A22F001021A621A6A42F001021A6273
:10271C00E8E71A6A22F001021A621A6A42F0010210
:10272C001A62E7E790F83C30012B00F0C580F0B45A
:10273C000223012480F83D3080F83C400C2A36D826
:10274C00DFE802F03E3535356735353591353535B1
:10275C00070003688F681D6A0E6825F480551D629A
:10276C001A6A6C4DD3F804C0DC6922F4005224F4CC
:10277C00E644AB4242EA073244EA062404D14D69EE
:10278C002CF4804C4CEA851C4D68C3F804C0DC6109
:10279C001D641A62DC690D6944F40064DC61D9695A
:1027AC0021F48061D961DA6942EA0522DA610023F9
:1027BC00F0BC012280F83C3080F83D201846704770
:1027CC0003688F681D6A0E6825F001051D621A6A80
:1027DC00504DD3F804C09C6922F0020224F073041B
:1027EC00AB4242EA070244EA060476D04D68C3F8CD
:1027FC0004C09C615D631A629C690D6944F0080415
:10280C009C61996921F0040199619A692A439A6142
:10281C00CDE703688F681D6A0E6825F010051D62F0
:10282C001A6A3C4DD3F804C09C6922F0200224F4AF
:10283C00E644AB4242EA071244EA06245BD04D68F8
:10284C00C3F804C09C619D631A629C690D6944F4D1
:10285C0000649C61996921F4806199619A6942EAEA
:10286C0005229A61A3E703688F681D6A0E6825F438
:10287C0080751D621A6A274DD3F804C0DC6922F4F6
:10288C00007224F07304AB4242EA072244EA0604C5
:10289C0014D04D68C3F804C0DC61DD631A62DC69D6
:1028AC000D6944F00804DC61D96921F00401D96197
:1028BC00DA692A43DA617AE702207047CE6822F49B
:1028CC000062D1E905752CF4405C42EA06223D43D6
:1028DC0022F480624CEA051CDBE7CF6822F0080288
:1028EC00D1E905562CF4407C3A43354322F00402DE
:1028FC0045EA0C0C7AE7CE6822F08002D1E9057526
:10290C002CF4406C42EA06123D4322F040024CEAA1
:10291C00850C94E7002C014090F83C30012B67D0DB
:10292C000222F0B40125036880F83D209A680C68F7
:10293C0022F47F4222F07702402C80F83C509A60BF
:10294C0000F0938018D9702C7FD02BD9B4F5805F10
:10295C0076D0B4F5005F1CD1D1E90152CC689968EE
:10296C002A4342EA042221F47F410A439A609A687E
:10297C0042F480429A600CE0102C42D02FD9202CCB
:10298C0038D0302C05D19A6822F0700242F0370210
:10299C009A600023F0BC012280F83C3080F83D2086
:1029AC0018467047502C33D0602CF2D11C6A4D68FD
:1029BC0024F01004CE681C6299691A6A21F47041E3
:1029CC0022F0A00242EA051241EA063199611A622C
:1029DC009A6822F0700242F067029A60D9E7002CE4
:1029EC00D7D19A6822F0700242F007029A60D0E7C1
:1029FC00022070479A6822F0700242F027029A6017
:102A0C00C7E79A6822F0700242F017029A60C0E79A
:102A1C001D6A1E6A4C6826F00106CF681E629A6910
:102A2C0025F00A0122F0F00242EA071221439A61D2
:102A3C0019629A6822F0700242F057029A60A8E775
:102A4C009A6822F007029A60A3E7D1E90152CC6898
:102A5C0099682A4342EA042221F47F410A439A608E
:102A6C009A6842F077029A6093E71D6A1E6A4C6876
:102A7C0026F00106CF681E629A6925F00A0122F041
:102A8C00F00242EA071221439A6119629A6822F015
:102A9C00700242F047029A607BE700BF704700BFAC
:102AAC00704700BF704700BF704700BF036810B588
:102ABC001A690446910702D5DA6892075FD41A693D
:102ACC00500702D5DA68510746D41A69120702D5A5
:102ADC00DA6810072ED41A69D20602D5DA68D00645
:102AEC0018D41A69D10702D5DA68D2075DD41A69ED
:102AFC00100602D5DA6811065FD41A69520602D59F
:102B0C00DA68500661D41A69910602D5DA68920621
:102B1C0043D410BD6FF0100108221961DB69204607
:102B2C0013F4407F227764D0FFF7BAFF00222368AA
:102B3C002277D6E76FF0080104221961DB69204681
:102B4C009907227752D1FFF7A9FF2046FFF7AAFF7A
:102B5C00002223682277BEE76FF00401022219617C
:102B6C009B69204613F4407F22773CD1FFF796FFF8
:102B7C002046FFF797FF002223682277A5E76FF026
:102B8C000201012219619B6902779B0725D0FFF78F
:102B9C0087FF00222368227791E76FF020022046FE
:102BAC00BDE810401A6100F07BB86FF001022046BE
:102BBC001A6100F091F9236899E76FF080022046C2
:102BCC001A6100F06FF8236897E76FF04002204617
:102BDC001A61FFF769FF236895E7FFF75FFF20464F
:102BEC00FFF760FFD5E7FFF75BFFC4E7FFF758FF80
:102BFC00AEE7FFF753FF2046FFF754FF96E700BF01
:102C0C0090F83C30012B22D00246D1E9020310B4DB
:102C1C00002423F440730343486823F48063034384
:102C2C00086823F400630343086923F480530343C7
:102C3C00486923F400530343886923F44043116823
:102C4C0003434B64204682F83C4010BC7047022082
:102C5C00704700BF90F83C30012B1ED0024602207A
:102C6C00F0B400250126136882F83D005C680F68FB
:102C7C0024F070045C6058684C683843586098685D
:102C8C0020F080009860996828462143996082F86A
:102C9C003D6082F83C50F0BC70470220704700BF8A
:102CAC00704700BF704700BF70B500224FF48076AC
:102CBC0001254FF4602403211F4B204884B0186079
:102CCC0018469E60DD60DC61C3E904125A60FEF7B1
:102CDC00BDFB58BB0023012201A917480193CDE984
:102CEC000223FEF771FDE0B90122022301A912486B
:102CFC00CDE90123FEF768FD70B90222032301A977
:102D0C000D48CDE90123FEF75FFD18B161210C4898
:102D1C0000F0FCF804B070BD5821094800F0F6F83A
:102D2C00EBE74F21064800F0F1F8DDE745210448B8
:102D3C0000F0ECF8CEE700BFF806002000240140BC
:102D4C00288E00081D4B02689A4200D07047F0B5DF
:102D5C0005460F20032403F56C439A6987B042F4AF
:102D6C0000729A619B6902A903F4007302900193AB
:102D7C001348019B0394FEF747FF00234FF40070A8
:102D8C0080274FF4006620214FF400520D4CC4E90B
:102D9C0001330D4B20612046E7602360C4E90561D7
:102DAC00E261FEF71FFE18B92C62656207B0F0BD38
:102DBC008821064800F0AAF8F6E700BF002401407D
:102DCC00000801402807002008000240288E000857
:102DDC0000220B4B10B55C6982B044F001045C61BD
:102DEC005B69114603F0010301930B20019BFEF775
:102DFC008DFD0B2002B0BDE81040FEF7BDBD00BF3D
:102E0C0000100240304B2DE9F0419A6988B042F035
:102E1C0010029A619A692D4E02F010020092009AEB
:102E2C00002215469969DFF8AC8041F020019961C8
:102E3C009C69304604F020040194019C9C694FF677
:102E4C00167144F004049C619F69012407F0040787
:102E5C000297029F9F6947F008079F619B690227B1
:102E6C0003F008030393039BFEF7C4FF2A46404676
:102E7C004FF48071FEF7BEFF4FF4005304A91448C1
:102E8C00CDE904350694FEF7BFFE4FF6167304A980
:102E9C0030460493CDE905450797FEF7B5FE4FF490
:102EAC008073404604A90493CDE905450797FEF7C6
:102EBC00ABFE202304A93046CDE905540493FEF75C
:102ECC00A3FE08B0BDE8F08100100240000C0140E8
:102EDC00001001400008014010B50B4C2368013371
:102EEC00590723600CD0DA0706D59B0700D010BD1C
:102EFC00BDE81040FDF768BAFEF70AFA2368F4E75C
:102F0C00FEF75EF92368EEE7A002002000B5134B34
:102F1C008FB005460C4693E80300FEF76BF8FDF7FF
:102F2C0049FE05210E4A0846FEF7E4F82A460D49EB
:102F3C0001A800F087FB01AA19210020FEF7DAF89E
:102F4C002246094901A800F07DFB01AA2D21002091
:102F5C00FEF7D0F8FDF7BAFAFEE700BF243D0008F3
:102F6C003C8E0008448E0008508E000830B51021AD
:102F7C000224012500224FF4601395B00AA80A948C
:102F8C001194CDE90E51CDE91223FEF743FF48BB56
:102F9C0003460F254FF48062214605A8CDE9064370
:102FAC00099305950892FFF71DF928BB4FF4404390
:102FBC0001A801940393FFF7F1F90446B8B9FFF7A0
:102FCC00E7F9104BA3FB00308009FEF7E1FC04206D
:102FDC00FEF7F6FC224621464FF0FF30FEF796FC3A
:102FEC0015B030BD4FF4A4710748FFF78FFF40F2C6
:102FFC005D110548FFF78AFF4FF4AB710248FFF7EC
:10300C0085FF00BFD34D62105C8E000808B5FEF73B
:10301C00E7F9FFF7ABFFFFF7F5FEFFF7D9FE00F07E
:10302C0031F9FFF741FE00F0ABF800F065F9FDF760
:10303C0087F8FDF7A1F8FCE7254B00B59A6983B03A
:10304C0042F001029A619A69032002F00102009297
:10305C00009ADA6942F08052DA61DB6903F080533E
:10306C000193019BFEF740FC00226FF00B00114610
:10307C00FEF74CFC00226FF00A001146FEF746FCEE
:10308C0000226FF009001146FEF740FC00226FF0A1
:10309C0004001146FEF73AFC00226FF003001146C3
:1030AC00FEF734FC00226FF001001146FEF72EFCF7
:1030BC0000224FF0FF301146FEF728FC054A5368FA
:1030CC0023F0E06343F00073536003B05DF804FB3E
:1030DC000010024000000140704700BFFEE700BF37
:1030EC00FEE700BFFEE700BFFEE700BF704700BF72
:1030FC00704700BF704700BF08B5FEF783F9BDE805
:10310C000840FEF76BBC00BF0148FEF7E7BC00BFF0
:10311C00280700202020FEF771BE00BF0148FFF7F2
:10312C00C5BC00BFEC0700204FF40050FEF766BE94
:10313C0030B44FF41F054FF000640E4B0E4A196863
:10314C000E4841F00101196059680A405A601A682A
:10315C0022F0847222F480321A601A6822F48022DF
:10316C001A605A6822F4FE025A609D60846030BC7A
:10317C00704700BF001002400000FFF800ED00E0B7
:10318C00002310B53B4C3C4A94B02046C4E90133B3
:10319C00C4E90333C4E905332260FFF7CFF90028F3
:1031AC003AD1002369463348CDE90033FFF752FD8D
:1031BC00002859D160200023069006A904222D482E
:1031CC00CDE90733CDE90933CDE90B33FFF7AAFA83
:1031DC00002844D1082206A92648FFF7A3FA0028A4
:1031EC0038D106A90C222348FFF79CFA68BB0023B0
:1031FC004FF400520DA91F48CDE90D33CDE90F3323
:10320C001193CDE91223FFF7FBFC50B922681A4B3E
:10321C009A420ED014B010BD45211848FFF776FE27
:10322C00BFE76E211548FFF771FE2268124B9A42D8
:10323C00F0D102234FF4606202A91148CDE90223B8
:10324C000593FEF7E1FC14B010BD62210B48FFF7AB
:10325C005DFECCE75D210948FFF758FEC1E7582118
:10326C000648FFF753FEB5E74C210448FFF74EFE26
:10327C00A0E700BFAC070020002C01406C8E0008BA
:10328C000008014030B500224FF0804540F27F2409
:10329C0040F2E731164B87B01846C3E90054C3E936
:1032AC0002211A619A61FFF7FBF8D8B94FF48053E9
:1032BC0006A941F8103D0E48FFF72EFB68B9002314
:1032CC0069460B48CDE90033FFF7C4FC18B18F21D8
:1032DC000848FFF71BFE07B030BD88210548FFF7F3
:1032EC0015FEECE782210348FFF710FEDEE700BF76
:1032FC00EC0700206C8E0008022170B5002301241D
:10330C001425154A8CB0154E04915160104603A932
:10331C001660C2E9023513619361CDE90633089357
:10332C00CDE90A33039405940994FFF755F968B96C
:10333C00002301A90848CDE90133FFF78BFC18B134
:10334C00B1210748FFF7E2FD0CB070BDAA2104487B
:10335C00FFF7DCFDECE700BF6C0700200008004025
:10336C006C8E00080268094B9A4200D0704703F536
:10337C0064439A6982B042F400629A619B6903F4D7
:10338C0000630193019B02B0704700BF002C014009
:10339C000368B3F1804F00D07047012103F504336B
:1033AC00D86900B50843D861DB6983B00B40019341
:1033BC0000221C20019BFEF7A9FA1C2003B05DF82B
:1033CC0004EBFEF7D9BA00BF02680E4B9A4200D04C
:1033DC00704730B5C025002403F50233DA6987B095
:1033EC0042F00402DA61DB6902A903F004030193E1
:1033FC0005480295019BCDE90344FEF705FC07B097
:10340C0030BD00BF00080040000C0140002103E06B
:10341C000B4B5B58435004310A480B4B42189A42F1
:10342C00F6D30A4A02E0002342F8043B084B9A42C6
:10343C00F9D3FFF77DFE00F00FF8FFF7E7FD7047BB
:10344C00B88E00080000002050020020500200201E
:10345C0030080020FEE7000070B500250C4E0D4C26
:10346C00A41BA410A54209D100F04AFC00250A4E69
:10347C000A4CA41BA410A54205D170BD56F82530EA
:10348C0098470135EEE756F8253098470135F2E7B5
:10349C00B08E0008B08E0008B08E0008B48E000804
:1034AC00024B0146186800F063B800BFEC01002025
:1034BC0010B5431E0A44914200D110BD11F8014BC6
:1034CC0003F8014FF7E703460244934200D17047DB
:1034DC0003F8011BF9E7000038B50546002943D075
:1034EC0051F8043C0C1F002BB8BFE41800F0CAF8CC
:1034FC001E4A1368104633B9636014602846BDE851
:10350C00384000F0C0B8A3420BD92168621893422E
:10351C0001BF1A685B685218226063600460EDE7B3
:10352C0013465A680AB1A242FAD919685818A0422F
:10353C000BD120680144581882421960DED1106802
:10354C005268014419605A60D8E702D90C232B60E9
:10355C00D4E7206821188A4201BF11685268091803
:10356C00216062605C60C9E738BD00BFA402002026
:10357C0070B5CD1C25F0030508350C2D38BF0C2576
:10358C00002D064601DBA94203D90C233360002031
:10359C0070BD00F077F8214A1468214691B9204C8F
:1035AC0023681BB9304600F03DF8206029463046B0
:1035BC0000F038F8431C24D10C233046336000F063
:1035CC0062F8E4E70B685B1B18D40B2B0FD90B606C
:1035DC00CC18CD50304600F056F804F10B00231DEA
:1035EC0020F00700C31AD3D05A42E250D0E74B6800
:1035FC008C4216BF636013600C46EBE70C464968BF
:10360C00CCE7C41C24F00304A04205D0211A304698
:10361C0000F008F80130CFD02560DBE7A4020020D1
:10362C00A802002038B50023054C05460846236047
:10363C0000F058FB431C02D1236803B12B6038BD4A
:10364C002C0800200EB46FF0004100B59CB01DABEF
:10365C0002900690079104910848094953F8042BED
:10366C000591006802A9019300F068F80022029B02
:10367C001A701CB05DF804EB03B07047EC0100202D
:10368C000802FFFF704770472DE9F0478E688246AD
:10369C009E420C469046994637D88A8912F4906F10
:1036AC0031D00223256809696F1A656905EB450558
:1036BC0095FBF3F509F101033B449D4238BF1D46D0
:1036CC00530530D52946FFF753FF064650B90C2356
:1036DC004FF0FF30CAF80030A38943F04003A381B8
:1036EC00BDE8F0873A462169FFF7E2FEA38923F48F
:1036FC00906343F08003A38126613E4426604E46CE
:10370C006561ED1BA5604E4500D94E4632464146DB
:10371C00206800F09FFAA36800209B1BA36023681D
:10372C001E442660DCE72A4600F0ADFA0646002867
:10373C00E2D121695046FFF7CFFEC8E72DE9F04FE3
:10374C009DB003938B8980461D060C4616460FD5FB
:10375C000B696BB94021FFF70BFF2060206128B982
:10376C000C23C8F800304FF0FF30C7E040236361F2
:10377C000023099320238DF8293030234FF0010BBF
:10378C008DF82A3037463D4615F8013B0BB1252BF9
:10379C003ED1B7EB060A0BD0534632462146404683
:1037AC00FFF772FF013000F0A480099B534409938A
:1037BC003B78002B00F09D8000234FF0FF32CDE9C9
:1037CC000523049307938DF853301A932F46052243
:1037DC0017F8011B4F4800F02FFA049BD0B9D906FB
:1037EC0044BF20228DF853201A0744BF2B228DF89A
:1037FC0053202A782A2A15D02F4600200A25079A0A
:10380C00394611F8013B303B092B4DD9B8B10FE0CB
:10381C002F46B8E73F4A3D46801A0BFA00F0184392
:10382C000490D3E7039A111D12680391002A01DB5F
:10383C00079204E0524243F00203079204933B7850
:10384C002E2B0CD17B782A2B33D1039B02371A1DDC
:10385C001B680392002BB8BF4FF0FF3305932E4D1E
:10386C0003223978284600F0E7F938B14023401B91
:10387C0003FA00F0049B01370343049339780622C2
:10388C0026487E1C8DF8281000F0D6F9002838D078
:10389C00234B13BB039B073323F00703083303931A
:1038AC00099B4B4409936DE705FB023201200F463F
:1038BC00A6E700230A25194601370593384610F868
:1038CC00012B303A092A03D9002BC8D00591C6E741
:1038DC0005FB012101230746F0E703AB00932246C9
:1038EC00104B04A94046AFF30080B0F1FF3F814676
:1038FC00D6D1A3895B063FF536AF09981DB0BDE85C
:10390C00F08F03AB00932246064B04A9404600F00F
:10391C0081F8EAE77C8E0008828E0008868E00080B
:10392C0000000000953600082DE9F04791461F462F
:10393C008A680B6906469342B8BF1346C9F8003033
:10394C0091F843200C46DDF8208012B10133C9F800
:10395C0000302368990642BFD9F800300233C9F809
:10396C000030256815F0060507D104F1190AE36843
:10397C00D9F800209B1AAB4229DC94F8433022681A
:10398C00003318BF012392062ED404F143023946AA
:10399C003046C047013021D02368E56803F00603A8
:1039AC00042B18BF0025D9F800204FF0000908BFE0
:1039BC00AD1AA368226908BF25EAE5759342C4BF16
:1039CC009B1AED181A344D451AD1002008E001233A
:1039DC00524639463046C047013003D14FF0FF30D4
:1039EC00BDE8F0870135C2E73020E11881F84300CB
:1039FC005A1C94F845102244023382F84310C4E751
:103A0C000123224639463046C0470130E6D009F141
:103A1C000109D8E72DE9F04301F1430C0C46097E6E
:103A2C0085B06E291746064698460C9A00F0B3806E
:103A3C0022D8632936D00AD8002900F0B980582939
:103A4C0000F0838004F1420584F8421032E06429CE
:103A5C0001D06929F6D120681368050603F1040129
:103A6C002AD51B681160002B03DA2D225B4284F8E7
:103A7C0043206F480A2239E0732900F09D8008D852
:103A8C006F2920D07029DDD1236843F020032360F7
:103A9C0003E0752917D07829D4D17823654884F8A8
:103AAC00453055E0136804F14205191D1B6811607F
:103ABC0084F8423001238CE01B6810F0400F116039
:103ACC0018BF1BB2CFE713682568181D10602806B5
:103ADC0001D51B6802E06806FBD51B886F2914BF53
:103AEC000A2208225248002184F843106568002DF0
:103AFC00A560C0F29580216821F004012160002BA3
:103B0C003DD1002D40F08E806546082A0BD12368EC
:103B1C00DB0708D5236962689A42DEBF302305F8BB
:103B2C00013C05F1FF35ACEB05032361CDF80080BA
:103B3C003B4603AA21463046FFF7F6FE01304DD135
:103B4C004FF0FF3005B0BDE8F083394884F84510DC
:103B5C00136821681D1D1B6815600A060BD5CA0762
:103B6C0044BF41F0200121601BB9226822F02002E1
:103B7C0022601022B7E74D0648BF9BB2EFE76546BF
:103B8C00B3FBF2F102FB1133C35C05F8013D0B46AC
:103B9C000029F5D1B9E713682568181D6169106013
:103BAC0028061B6801D5196002E06A06FBD519804E
:103BBC00002365462361B9E71368191D11601D6860
:103BCC0062680021284600F037F808B1401B60609D
:103BDC0063682361002384F84330A7E723692A46EE
:103BEC0039463046C0470130AAD023689B0713D40E
:103BFC00E068039B9842B8BF1846A3E701234A46E6
:103C0C0039463046C04701309AD00135E368039AF3
:103C1C009B1AAB42F2DCEBE7002504F11909F5E73E
:103C2C00002BACD1037804F1420584F842306CE7E8
:103C3C008D8E00089E8E000810B5C9B202449042C9
:103C4C00034601D1002303E01C7801308C42F6D1ED
:103C5C00184610BD884210B501EB020307D8421E6E
:103C6C0099420AD011F8014B02F8014FF8E7834250
:103C7C00F5D98118D21AD34200D110BD13F8014DD9
:103C8C0001F8014DF7E7F8B5074614460E4621B981
:103C9C00BDE8F8401146FFF76BBC22B9FFF71CFCDE
:103CAC0025462846F8BD00F014F8A0420FD2214654
:103CBC003846FFF75DFC05460028F2D03146224617
:103CCC00FFF7F6FB31463846FFF706FCE9E73546C9
:103CDC00E7E751F8043C181F002BBCBF0B58C01869
:103CEC0070470000044A05491368002B08BF0B46B7
:103CFC001844106018467047AC02002030080020B1
:103D0C00F8B500BFF8BC08BC9E467047F8B500BFBC
:083D1C00F8BC08BC9E4670478C
:103D2400F46E00080508207F743D00081B1C207FEA
:103D3400546600080B0D207F607B000811112E5A79
:103D4400347100081B242E3994770008141C2E3972
:103D5400A88000080F152E39D08200080B0E2E39CA
:103D6400E483000814242E39A088000812242E3974
:103D74000E00000000000000000000000000000031
:103D8400000000000000000000000000000000002F
:103D9400000000000000000000000000000000001F
:103DA400000000000000000000000000000000000F
:103DB40000000000000000000000000000000000FF
:103DC40000000000000000000000000000000000EF
:103DD40000000000000000000000000000050000DA
:103DE400000000000000FC7F0E00FC7F0F00FC7F41
:103DF40007000000000000000000000000000000B8
:103E040000000000000000000000000000000000AE
:103E1400000000000000000000000000000000009E
:103E2400000000000000000000000000000000008E
:103E3400000000000000000000000000000000007E
:103E44000000000000000000000009000000000065
:103E5400000000FC010000FC010000000000000064
:103E640000000000000000FC010000FC0100000054
:103E7400000000000000000000000000000000003E
:103E8400000000000000000000000000000000002E
:103E9400000000000000000000000000000000001E
:103EA400000000000000000000000000000000000E
:103EB400000000000000001100000000006000008D
:103EC4008061000080610C0080E10F0080FD0F0024
:103ED400807F0000F86F0000FC610C008CE10F0093
:103EE40080FD0F00807F0000F86F0000FC6100007F
:103EF4008C610000802100008001000000000000AF
:103F040000000000000000000000000000000000AD
:103F1400000000000000000000000000000000009D
:103F240000000000110000000000830100C0C7036E
:103F340000E08F0300700C0700300C0600180C061C
:103F44000018040600FFFF7F00FEFF3F001806066E
:103F54000018060300180603003886030070FE01EB
:103F64000070FC0000007800000000000000000069
:103F7400000000000000000000000000000000003D
:103F8400000000000000000000000000000000002D
:103F9400001500000000E0000000F0010000F8033C
:103FA40000001C0304000C030E008C830F00FCC1F2
:103FB4000300F8F00000707C0000001E0000800781
:103FC4000300E0830700F0C00F003CC00C001C603D
:103FD4000C0008600C000060060000E0070000C050
:103FE4000300008001000000000000000000000049
:103FF40000000000000000000000000000001600A7
:1040040000000000E0030000F0070000F807007063
:104014001C0E00F80E0C00F80F0C00DC070C008CD2
:10402400070C000C0F0C000C1F06008C1F0600CCA4
:10403400390700F8710300F8F0030070E001000094
:10404400E0010000F80300003C070000180E000027
:10405400000E000000070000000000000000000047
:104064000000000000000000000000040000000048
:1040740000000000FC010000FC0100000000000042
:10408400000000000000000000000000000000002C
:10409400000000000000000000000000000000001C
:1040A400000000000000000000000000000000000C
:1040B40000000000000000000000000000000000FC
:1040C40000000000000000000000000000000000EC
:1040D40000000000000000000B00000000000000D1
:1040E4000000FC030000FF1F00C0FF3F00E003FCD2
:1040F40000F000E0013800C0013C0080031C008097
:1041040003080000000000000000000000000000A0
:10411400000000000000000000000000000000009B
:10412400000000000000000000000000000000008B
:10413400000000000000000000000000000000007B
:1041440000000000000A00000000080000001C003D
:1041540080033C0080033800C001F000F001E0035C
:10416400FC00C0FF3F0000FF1F0000FC0300000034
:10417400000000000000000000000000000000003B
:10418400000000000000000000000000000000002B
:10419400000000000000000000000000000000001B
:1041A400000000000000000000000000000000000B
:1041B40000000A00000000C0000000C00000004C25
:1041C400020000D8030000F0010000FC000000AC75
:1041D4000100003003000030000000000000000077
:1041E40000000000000000000000000000000000CB
:1041F40000000000000000000000000000000000BB
:1042040000000000000000000000000000000000AA
:104214000000000000000000000000000000000E8C
:10422400000000000040000000600000006000008A
:10423400006000000060000000FF0F0000FF0F009E
:1042440000FF0F000060000000600000006000003C
:10425400006000000060000000000000000000009A
:10426400000000000000000000000000000000004A
:10427400000000000000000000000000000000003A
:104284000000000000000000000000000500000025
:10429400000000660000006F0000003F0000001EE8
:1042A400000000000000000000000000000000000A
:1042B40000000000000000000000000000000000FA
:1042C40000000000000000000000000000000000EA
:1042D40000000000000000000000000000000000DA
:1042E40000000000000000000000000000000000CA
:1042F4000000000000000000000A00000000003080
:1043040000000070000000300000003000000030A9
:1043140000000030000000300000003000000030D9
:104324000000000000000000000000000000000089
:104334000000000000000000000000000000000079
:104344000000000000000000000000000000000069
:104354000000000000000000000000000000000059
:104364000000000000000500000000000000000044
:10437400000E0000000F0000000700000000000015
:104384000000000000000000000000000000000029
:104394000000000000000000000000000000000019
:1043A4000000000000000000000000000000000009
:1043B40000000000000000000000000000000000F9
:1043C40000000000000000000000000000000000E9
:1043D4000000000B000000000000040000000F00BB
:1043E40000C00F0000F80100007E0000801F0000E4
:1043F400E0070000FC0100007C0000001C0000003D
:1044040000000000000000000000000000000000A8
:104414000000000000000000000000000000000098
:104424000000000000000000000000000000000088
:104434000000000000000000000000000000000078
:10444400160000000000F8010000FF030080FF07D1
:1044540000C0030700E0010E0070000C0030000CE7
:104464000038000C0018000C0008000C000C000CB4
:10447400000C0006000C0006000C0007000C0003F2
:10448400001C80030018C0010038F00000F07F0019
:1044940000E03F0000C00F0000000000000000002A
:1044A40000000000000000000000000000100000F8
:1044B40000000000000000000000000000000001F7
:1044C400000080030000C0030000C0010000E00001
:1044D4000000E000000070000000700000003800E0
:1044E4000000F8FF0F00FCFF0F00FCFF0F000000AE
:1044F40000000000000000000000000000000000B8
:1045040000000000000000000000000000000000A7
:104514000000000000000000000014000000000083
:1045240000000000000000E0000E00E0000F00F0BA
:10453400C00F0038E00D0018E00C0018700C000CDF
:10454400300C000C380C000C380C000C1C0C000C4B
:104554001C0C000C0C0C000C0E0C00180F0C00F8BA
:10456400070E00F8030F00E0010E00000000000039
:104574000000000000000000000000000000000037
:104584000000000000000015000000000000000012
:1045940000C003007CC007007CC007007C000E0044
:1045A4000C000C000C000C000C0E0C000C060C0093
:1045B4000C070C000C070C008C030C00CC03060049
:1045C400EC0306007C0306003C0303001CC7030045
:1045D4000CFE010000FE0000007C00000000000052
:1045E40000000000000000000000000000000000C7
:1045F400000000001600C0000000E0000000F00011
:104604000000F8000000F8000000FC000000EE00CC
:10461400000067000080630000C0610000E06000EB
:10462400007060000038700000FCFF0F00FCFF0FFA
:1046340000FCFF0F000030000000300000003000DC
:1046440000003800000038000000380000000000BE
:104654000000000000000000000000000000000056
:104664000015000000000000000000080300F81F0F
:104674000700F81F0700F80D0E00080E0C000806CE
:104684000C0008060C0008020C0008030C000803C8
:104694000C0008030C00080306000C0306000C03BE
:1046A40007000C0703000CC603000CFE010000FC0D
:1046B400000000780000000000000000000000007E
:1046C40000000000000000000000000000001600D0
:1046D4000000000078000000FE030080FF0300C01B
:1046E400C70700E0E1070060700E0070300C00386E
:1046F400380C00181C0C00180C0C000C0C0C000CD2
:10470400060C000C060E000C0606000C0606000C37
:104714000607000C060300388E030078FC01003005
:10472400FC00000078000000000000000000000011
:10473400000000000000000000000016000000005F
:104744000000000000000000F8010000FC0100006F
:10475400FC0000000C0000000C0000000C00000035
:104764000C000E000C800F000CE007000CF00100A0
:104774000CFC00000C3E00008C1F0000EC07000045
:10478400FC030000FC0000003C0000000C000000E2
:104794000400000000000000000000000000000011
:1047A4000000000000000000160000000000C0012E
:1047B4000000E0030000F00700C0790600F03B0EA3
:1047C40000F81F0C00380E0C00180C0C001C0C0C0C
:1047D400000C060C000C060C000C0606000C060669
:1047E400000C0606001C070300F8070300F8860304
:1047F4000070CE010000FC000000FC000000380046
:1048040000000000000000000000000000000000A4
:10481400000000000016000000000000010080837A
:104824000300E0870700F00F0700700C0E00381C2F
:104834000C0018180C001C180C000C180C000C1898
:104844000C000C180C000C1804000C0C06000C0CCA
:1048540006001C0C07001886030038C70300F0E3A9
:104864000100F0FF0000E07F0000001F00000000D6
:104874000000000000000000000000000000000034
:104884000000050000000000000000000C0E000005
:104894001E0F00000C0700000000000000000000D4
:1048A4000000000000000000000000000000000004
:1048B40000000000000000000000000000000000F4
:1048C40000000000000000000000000000000000E4
:1048D40000000000000000000000000000000000D4
:1048E40000000000000000000000000000000005BF
:1048F4000000000000006600000C6F00001E3F0076
:10490400000E1E0000000000000000000000000077
:104914000000000000000000000000000000000093
:104924000000000000000000000000000000000083
:104934000000000000000000000000000000000073
:104944000000000000000000000000000000000063
:104954000000000000000000000000000D00000046
:104964000000000000006000000070000000F00083
:104974000000F8010000D80100009C0300000C03B3
:1049840000000E070000070E0000070E00000202E0
:104994000000000000000000000000000000000013
:1049A4000000000000000000000000000000000003
:1049B40000000000000000000000000000000000F3
:1049C4000000000000000000000D00000000008C4A
:1049D4000100008C0100008C0100008C0100008C9F
:1049E4000100008C0100008C0100008C0100008C8F
:1049F4000100008C0100008C0100008C010000000B
:104A040000000000000000000000000000000000A2
:104A14000000000000000000000000000000000092
:104A24000000000000000000000000000000000082
:104A34000000000000000D00000000000000000065
:104A440002020000070E0000070E00000E0700001F
:104A54000C0300009C030000D8010000F8010000D2
:104A6400F000000070000000600000000000000082
:104A74000000000000000000000000000000000032
:104A84000000000000000000000000000000000022
:104A94000000000000000000000000000000000012
:104AA4000000001000000000200000007000000062
:104AB400F00000007870000018F8000018FC1C00DA
:104AC4000CDC1E000CCE0E000CC700000CF700001E
:104AD4008C730000DC210000F8010000F8000000E5
:104AE4007000000000000000000000000000000052
:104AF40000000000000000000000000000000000B2
:104B040000000000000000000000000000000000A1
:104B14001B000000000080070000E01F0000783840
:104B240000001C3000000E70000006670000C36720
:104B34000080E36F0080716C0080396C00C0186CD9
:104B440000C00C6600C00C36006004330060863B75
:104B5400006086110060C6070060FE0F0060FE0F53
:104B640000600E0C0060000C00C0000600C00106CE
:104B7400008083030000FF0100007C00001500009A
:104B84000E0000800F0000C00F0000F0010000784C
:104B94000000003E0000001F0000801F0000E01B1A
:104BA4000000F81800007C1800007C180000F818B9
:104BB4000000E01B0000801F0000001F0000007CBC
:104BC400000000F8010000E00F0000800F0000006A
:104BD4000E000000000000000000000000000000C3
:104BE40000000000000000000000150000000000AC
:104BF400000000F8FF0F00FCFF0F00F8FF0F001883
:104C0400060C0018060C0018070C000C0704000C16
:104C14000306000C0306008C0306008C030700CC7B
:104C2400030300CC030300FC83030078C3010038B2
:104C3400E7010000FE0000007E0000001C000000F0
:104C44000000000000000000000000000000000060
:104C5400000000000000001200000000007C0000C2
:104C640000FF0100C0FF0700E0830700F0000E0012
:104C740030000E0038000C0018000C000C000C0072
:104C84000C000C000C000C000C0006000C000700CB
:104C94000C00070018C0030038C0010038C0010030
:104CA4000000000000000000000000000000000000
:104CB40000000000000000000000000000000000F0
:104CC40000000000150000000000000000FCFF0FC1
:104CD40000FCFF0F00FCFF0F0038000C0018000C54
:104CE4000018000C001C0006000C0006000C000656
:104CF400000C0007000C0003000C8003000C800370
:104D0400001CC0010018E0010078F80000F07F00EA
:104D140000E01F0000C007000000000000000000C9
:104D2400000000000000000000000000000000007F
:104D340000130000000010000000FCFF0F00FCFF47
:104D44000F00FCFF0F00180C0600180C0600180CCE
:104D54000600180C0600180C0600180C0600180CA7
:104D64000600180C0600180E06001C0E06001C0493
:104D740006001C00070000000700000002000000FD
:104D8400000000000000000000000000000000001F
:104D940000000000000000000000000000001100FE
:104DA40000000000000000F8FF0F00FCFF0F00FCF3
:104DB400FF0F00381C0000381C0000380C000018DD
:104DC4000C0000180C0000180C0000180C0000184F
:104DD4000E00001C0E00001C0E00001C0E00001C27
:104DE40000000000000000000000000000000000BF
:104DF40000000000000000000000000000000000AF
:104E04000000000000000000000000170000000087
:104E140000F8000000FE010080FF0300C0870700C7
:104E2400E0010600E0000E0070000C0030000C00F1
:104E340038000C0018000C0018000C000C100C00BA
:104E44000C1806000C1806000C1806000C180300B9
:104E54000C9803001CCC010018EC010038FC000085
:104E6400107C0000001C0000000000000000000096
:104E740000000000000000001400000000000C000E
:104E840000FCFF0F00FCFF0F00FCFF0F00000E00F2
:104E940000000E0000000E0000000E0000000E00D6
:104EA40000000E0000000E000000060000000600D6
:104EB40000000600000006000000060000FCFF0FD2
:104EC40000FCFF0F00FCFF0F0000000000000000CA
:104ED40000000000000000000000000000000000CE
:104EE4000000000000050000000000000000FCFFBE
:104EF4000F00FCFF0F00FCFF0F000000000000008B
:104F0400000000000000000000000000000000009D
:104F1400000000000000000000000000000000008D
:104F2400000000000000000000000000000000007D
:104F3400000000000000000000000000000000006D
:104F4400000000000000000000000000000000005D
:104F5400000010000000000080030000C0070000F3
:104F6400C00F0000001C0000001800000018000022
:104F7400001800000018000000180000001C0000C9
:104F8400000E0000000F00FCFF0700FCFF0300FC04
:104F9400FF0100000000000000000000000000000D
:104FA40000000000000000000000000000000000FD
:104FB40000000000000000000000000000000013DA
:104FC4000000000000000000FCFF0F00FCFF0F00C9
:104FD400FCFF0F00800F0000800F0000C01D0000C8
:104FE400E0380000E07800007070000030E000005D
:104FF40038C0010018C003000C8003000C00070037
:1050040000000E0000000E0000000400000000007C
:10501400000000000000000000000000000000008C
:105024000000000000000000000000000F0000006D
:105034000000000000FCFF0F00FCFF0F00FCFF0F4E
:105044000000000E0000000E000000060000000634
:105054000000000600000006000000070000000732
:10506400000000070000000700000000000000002E
:10507400000000000000000000000000000000002C
:10508400000000000000000000000000000000001C
:1050940000000000000000000019000000000000F3
:1050A4000000F8FF0F00FCFF0F00FCFF0F00F001F1
:1050B4000000C0030000800F0000001E0000007C00
:1050C400000000F8010000E0070000800F000080ED
:1050D4000F0000E0070000F0010000F80000003CB1
:1050E4000000001E0000000F0000C0030000E001EB
:1050F4000000FCFF0F00FCFF0F00FCFF0F0000008E
:10510400000000000000130000000000000000FC8C
:10511400FF0F00FCFF0F00FCFF0F00F0010000C0B8
:1051240003000080070000000F0000001E000000C4
:105134003C0000003800000070000000F000000097
:10514400E0010000C00300FCFF0700FCFF0F00FCAF
:10515400FF0F00000000000000000000000000003D
:10516400000000000000000000000000000000003B
:10517400000000150000000000F8000000FE01001F
:1051840080FF0300C0830700E001060070000E00EA
:1051940030000C0038000C0018000C000C000C004F
:1051A4000C000C000C0006000C0006000C000700AC
:1051B4001C00030018C0030078E00100F0FF0000A9
:1051C400E07F0000801F00000000000000000000DD
:1051D40000000000000000000000000000000000CB
:1051E4001300000000C0000000FCFF0F00FCFF0FD4
:1051F40000FCFF0F00381C0000380C0000180C00E5
:1052040000180C0000080E00000C0E00000C060034
:10521400000C0700000C0300008C030000CC01000C
:1052240000FC010000F8000000380000000000004D
:10523400000000000000000000000000000000006A
:105244000000000000000000000000000017000043
:10525400000000F8000000FE030080FF0700C00704
:105264000700E0010E00E0000C0070000C003000AC
:105274000C0018000C0018000C000C200C000C7022
:105284000E000CF006000CE006000CC007001CC069
:1052940003001CC0070078F00700F0FF0E00E03F99
:1052A4001C00C00F1C0000000800000000000000EB
:1052B400000000000000000000001500000000E0F5
:1052C400000000FCFF0F00FCFF0F00FCFF0F003884
:1052D4001C0000183E0000183E0000187600000C68
:1052E4007600000CE600000CE300000CC300008C08
:1052F400C301008C810100CC810300FC000300F891
:105304000007003800060000000E0000000E000038
:105314000000000000000000000000000000000089
:10532400000000000000001500000000000703005A
:10533400C0870700E00F0700700C0E00300C0C0053
:10534400180C0C00180C0C00180C0C000C040C00AD
:105354000C040C000C060E000C0606000C060600DD
:105364000C0607001C0607003886030038C6030035
:1053740010FE010000FC00000038000000000000E6
:105384000000000000000000000000000000000019
:105394000000000012300000003000000030000067
:1053A4000030000000300000001000000010000079
:1053B40000F8FF0F00F8FF0F00F8FF0F00180000BF
:1053C400000800000008000000080000000C0000B5
:1053D400000C0000000C0000000C000000000000A5
:1053E40000000000000000000000000000000000B9
:1053F40000000000000000000000000000000000A9
:1054040000120000000000000000FCFF0300FCFF8D
:105414000700F8FF070000000E0000000C00000069
:105424000C0000000C0000000C0000000C00000048
:105434000E00000006000000070000000700FCFF4B
:105444000300FCFF0100FCFF00000000000000005E
:105454000000000000000000000000000000000048
:105464000000000000000000000000000000130025
:105474000000003C000000FC010000F8070000C030
:105484001F0000007F000000F80F0000C00F0000A4
:10549400C00F0000F00000007C0000001E000000AF
:1054A4000F0000C0030000E0010000F000000078DD
:1054B4000000003C00000018000000000000000094
:1054C40000000000000000000000000000000000D8
:1054D40000000000000000000000001B00000000AD
:1054E4007C000000FC030000FC1F000000FF000023
:1054F40000F80F0000E00F0000C00F0000F00100F2
:1055040000780000003E0000800F0000F803000057
:10551400F8000000F8030000800F0000003E0000C7
:1055240000FC000000F0070000800F0000C00F0026
:1055340000F80300007E0000801F0000FC0700004C
:10554400FC0100003C00000011000004001C000EDF
:10555400003C000F007CC00700F8E00300F0F100FD
:1055640000C07B0000803F0000001F0000001F00FF
:1055740000C07F0000E0F10000F0E0010078C0030B
:10558400003C800F001C000F001800040000000005
:105594000000000000000000000000000000000007
:1055A40000000000000000000000000000000000F7
:1055B400000000000015180000001C0000003C0062
:1055C400000078000000F0000000E0010000C001CD
:1055D4000000800300000007000000FF0F0000FE31
:1055E4000F0000FE0F000007000080030000C00150
:1055F4000000E0010000E00000007000000038003E
:1056040000003C0000001C0000000000000000003E
:105614000000000000000000000000000000000086
:105624000000140000000000000E0038000F003CD1
:10563400800F001CC00F000CC00D000CE00C000C0F
:10564400700C000C380C000C3C0C000C1E0C000CF4
:105654000F0C008C070C00CC030C00EC010C00ECCC
:10566400000C00FC000C007C000E003C000F001C31
:105674000006000000000000000000000000000020
:105684000000000000000000000000000000000C0A
:10569400000000000000000000000000F8FFFF030D
:1056A400FCFFFF03FCFFFF030C0000030C000003DE
:1056B4000C0000030C0000030C0080030000000138
:1056C40000000000000000000000000000000000D6
:1056D40000000000000000000000000000000000C6
:1056E40000000000000000000000000000000000B6
:1056F4000000000000000000000000000B08000093
:10570400001C0000007C000000F0010000C0070045
:1057140000001F0000007C000000F0010000C00F2A
:105724000000000F00000004000000000000000062
:105734000000000000000000000000000000000065
:105744000000000000000000000000000000000055
:105754000000000000000000000000000000000045
:1057640000000000000000000009080000001C0008
:1057740000030C0000030C0000030C0000010C00EB
:105784000001FCFFFF01FCFFFF03F8FFFF01000025
:105794000000000000000000000000000000000005
:1057A40000000000000000000000000000000000F5
:1057B40000000000000000000000000000000000E5
:1057C40000000000000000000000000000000000D5
:1057D4000000000000000D00000000000100008037
:1057E400030000C0030000E0010000F000000078A6
:1057F4000000001C0000007C000000F0000000E03D
:10580400030000C0030000000300000000000000CB
:105814000000000000000000000000000000000084
:105824000000000000000000000000000000000074
:105834000000000000000000000000000000000064
:105844000000000D0000C0000000C0000000C00007
:105854000000C0000000C0000000C0000000C00044
:105864000000C0000000C0000000C0000000C00034
:105874000000C0000000C0000000000000000000A4
:105884000000000000000000000000000000000014
:105894000000000000000000000000000000000004
:1058A40000000000000000000000000000000000F4
:1058B4000800000000000000000C0000001C0000B4
:1058C40000180000003000000060000000600000CC
:1058D40000000000000000000000000000000000C4
:1058E40000000000000000000000000000000000B4
:1058F40000000000000000000000000000000000A4
:105904000000000000000000000000000000000093
:10591400000000000000000000000000000F000074
:1059240000000000060000800F0000CC0F0000CE35
:105934000C0000C60C0000660C0000630400002389
:105944000600003306000033030000B3010000FF2B
:105954000F0000FE0F0000FE0F000000000000001A
:105964000000000000000000000000000000000033
:105974000000000000000000000000000000000023
:105984000000000000000000000010000000000003
:10599400000000FCFF0F00FCFF0F00FCFF0F0000E5
:1059A4001C0C00000E0C0000060600000606000099
:1059B4000203000083030000C3010000E3000000B1
:1059C4007F0000003F0000000E0000000000000007
:1059D40000000000000000000000000000000000C3
:1059E40000000000000000000000000000000000B3
:1059F400000000000000000F0000000000E00300B1
:105A040000F0070000F80700003C0E00000E0C0038
:105A140000060C0000070C0000030C0000030C003F
:105A24000003060000030700008707000086030048
:105A340000860100000000000000000000000000DB
:105A44000000000000000000000000000000000052
:105A54000000000000000000000000000000000042
:105A64000000000010000000000080070000C007D4
:105A74000000E00F0000780C0000380C00001C0C43
:105A840000000C0C00000C060000060600000603D3
:105A9400000086030000C60100FCFF0F00FCFF0F9E
:105AA40000FCFF0F000000000000000000000000E8
:105AB40000000000000000000000000000000000E2
:105AC40000000000000000000000000000000000D2
